:020000040000fa
:080000000001040000000000f3
:020000040000fa
:04000800c20600002c
:020000040000fa
:04000c00c206000028
:020000040000fa
:04001000c206000024
:020000040000fa
:04001400c206000020
:020000040000fa
:04001800c20600001c
:020000040000fa
:04001c00c206000018
:020000040000fa
:04002000c206000014
:020000040000fa
:04002400c206000010
:020000040000fa
:04002800320600009c
:020000040000fa
:04002c00c206000008
:020000040000fa
:04003000c206000004
:020000040000fa
:04003400d0010000f7
:020000040000fa
:04003800c2060000fc
:020000040000fa
:04003c00c2060000f8
:020000040000fa
:04004000c2060000f4
:020000040000fa
:04004400c2060000f0
:020000040000fa
:04004800c2060000ec
:020000040000fa
:04004c00d6020000d8
:020000040000fa
:04005000fc040000ac
:020000040000fa
:04005400140600008e
:020000040000fa
:04005800c2060000dc
:020000040000fa
:04005c00c2060000d8
:020000040000fa
:04006000c2060000d4
:020000040000fa
:04006400c2060000d0
:020000040000fa
:040068004e06000040
:020000040000fa
:04006c00c2060000c8
:020000040000fa
:04007000c2060000c4
:020000040000fa
:04007400c2060000c0
:020000040000fa
:04007800c2060000bc
:020000040000fa
:04007c00c2060000b8
:020000040000fa
:04008000c2060000b4
:020000040000fa
:040084006a06000008
:020000040000fa
:040088003c05000033
:020000040000fa
:04008c00d405000097
:020000040000fa
:04009000c2060000a4
:020000040000fa
:04009400c2060000a0
:020000040000fa
:04009800c20600009c
:020000040000fa
:04009c00c206000098
:020000040000fa
:0400a000c206000094
:020000040000fa
:0400a400c206000090
:020000040000fa
:0400a800c20600008c
:020000040000fa
:0400ac00c206000088
:020000040000fa
:0400b000c206000084
:020000040000fa
:0400b400c206000080
:020000040000fa
:0400b80088060000b6
:020000040000fa
:0400bc00a406000096
:020000040000fa
:0400c000c206000074
:020000040000fa
:0400c400c206000070
:020000040000fa
:0400c800c20600006c
:020000040000fa
:0400cc00c206000068
:020000040000fa
:0400d000c206000064
:020000040000fa
:0400d400c206000060
:020000040000fa
:0400d800c20600005c
:020000040000fa
:04010800c20600002b
:020000040000fa
:04010c00c206000027
:020000040000fa
:04011000c206000023
:020000040000fa
:04011400c20600001f
:020000040000fa
:04011800c20600001b
:020000040000fa
:04011c00c206000017
:020000040000fa
:04012000c206000013
:020000040000fa
:04012400c20600000f
:020000040000fa
:04012800320600009b
:020000040000fa
:04012c00c206000007
:020000040000fa
:04013000c206000003
:020000040000fa
:04013400d0010000f6
:020000040000fa
:04013800c2060000fb
:020000040000fa
:04013c00c2060000f7
:020000040000fa
:04014000c2060000f3
:020000040000fa
:04014400c2060000ef
:020000040000fa
:04014800c2060000eb
:020000040000fa
:04014c00d6020000d7
:020000040000fa
:04015000fc040000ab
:020000040000fa
:04015400140600008d
:020000040000fa
:04015800c2060000db
:020000040000fa
:04015c00c2060000d7
:020000040000fa
:04016000c2060000d3
:020000040000fa
:04016400c2060000cf
:020000040000fa
:040168004e0600003f
:020000040000fa
:04016c00c2060000c7
:020000040000fa
:04017000c2060000c3
:020000040000fa
:04017400c2060000bf
:020000040000fa
:04017800c2060000bb
:020000040000fa
:04017c00c2060000b7
:020000040000fa
:04018000c2060000b3
:020000040000fa
:040184006a06000007
:020000040000fa
:040188003c05000032
:020000040000fa
:04018c00d405000096
:020000040000fa
:04019000c2060000a3
:020000040000fa
:04019400c20600009f
:020000040000fa
:04019800c20600009b
:020000040000fa
:04019c00c206000097
:020000040000fa
:0401a000c206000093
:020000040000fa
:0401a400c20600008f
:020000040000fa
:0401a800c20600008b
:020000040000fa
:0401ac00c206000087
:020000040000fa
:0401b000c206000083
:020000040000fa
:0401b400c20600007f
:020000040000fa
:0401b80088060000b5
:020000040000fa
:0401bc00a406000095
:020000040000fa
:0401c000c206000073
:020000040000fa
:0401c400c20600006f
:020000040000fa
:0401c800c20600006b
:020000040000fa
:0401cc00c206000067
:020000040000fa
:0401d000c206000063
:020000040000fa
:0401d400c20600005f
:020000040000fa
:0401d800c20600005b
:020000040000fa
:10020000efa021000e7f22000e01880000000000f8
:10021000000020000000e000020032000001200089
:1002200020028800140007001a0307000000e00005
:1002300003003a00e00c2600010020000200370015
:100240000000200001002000810f7000010032003a
:1002500014000700000020000000e000020032004f
:1002600000000200000000009c18020000000000d6
:100270000040da000000fe004440a9008097200002
:100280000000e0000300320000002000a001880010
:100290004440a800000006008a1f78008b1f7800e9
:1002a0000000060091018800800478000000eb0047
:1002b0001a003700e284440032a0b4009905ba0065
:1002c000e284440032a0b4009906ba00e2844400fb
:1002d00032a0b4000006eb00476fde00fd07b2005d
:1002e000636ce10003003a00ebff07000000eb0045
:1002f0000a003700606ce10004003a00005deb008a
:100300008b05e900fdff3e00040037006168e10055
:10031000010032000086eb000b00070019c7ba008d
:100320001905ba000e04e00003003a000a00e000dc
:10033000e0ff3a0000000600fe07b2009e018800c0
:100340008a047800f5ff3700395dba008b05e900b3
:100350000c003200295dba008b05e900080032006c
:100360000c00e00003003a00e284440032a0b40034
:10037000f5ff370019ddba008b05e900faff3a00f6
:100380008904e800e184440032a0b40000000600c3
:10039000183d040000000000d03d040000000000f3
:1003a000809fbe00829fbe00841f78003400f8004a
:1003b00000002000a00188000000fa00f042800048
:1003c0000143800014c0b300c25d20000300200080
:1003d000820f5000838f580001003e000042eb0066
:1003e00061004000e0804800f0428800014388003e
:1003f0000404e000090032005e28ef006028ef00ee
:10040000104380000000e800104388001043800083
:10041000e20f5000010036006228ef007ac8bf00ea
:10042000e14f50000e003a00e143800010c0b300dd
:10043000823e2000828f500001003e000040eb0011
:100440008100e800e14388000004e000040032007d
:100450007c28ef00f04380000000e800f0438800b3
:1004600032c8bf000004e0000300320032c8bf0001
:100470000040e90032e8b7004042800061006000bf
:100480000000e00012003200204280003142800073
:1004900014c0b3007238210003002000820f500006
:1004a000838f580001003e000042eb0061004000d5
:1004b000e080480020428800314288000404e000c7
:1004c000030032004828a8004428ef004628ef0027
:1004d0004ac8bf00e44f50001b003a008fc8bf005d
:1004e0000004e000090032008fc8bf00eb4f50004d
:1004f00006003e00404480005144800061004000fe
:10050000e08048004044880051448800a8c8bf00eb
:100510000004e0000a003200a8c8bf00e74f500006
:1005200007003e00504580006145800061004000aa
:10053000e08048005045880061458800020037008f
:10054000aa28ef00ac28ef008fc8bf000004e0002d
:1005500003003200a8c8bf000004e00003003a0016
:100560004ac8bf00e44f50000400320070428000cf
:10057000680060000000e00004003200404380009a
:100580000000e80040438800010037006828ef00c1
:100590008460a9000080fa003400f9004f0278005e
:1005a0004f01be004f00be0000400600809fbe000d
:1005b000821f78003400f80000002000a0018800ad
:1005c0000000fa0070108000620060000000e0008f
:1005d000010032000e22a900901080000040780037
:1005e00000e8b700704180000280200012417800ce
:1005f000b1c92000827078000000e80070418800d6
:100600007141800050542000808f5000010036005e
:100610002e28ef00018020009140780050c5b300e3
:1006200080cf500001003a003688a80001802000e9
:100630009140780030c4b30080cf500003003a00ee
:1006400010c0b30079e8b7008200370001802000b5
:1006500091407800a0c3b30080cf500006003a005c
:1006600079c8bf00e14f500003003a0020c0b3003a
:1006700079e8b700770037000180200091407800ca
:1006800000c2b30080cf500006003a0079c8bf0016
:10069000e24f500003003a0030c0b30079e8b700e1
:1006a0006c003700018020009140780020c2b30028
:1006b00080cf500006003a0079c8bf00e34f5000d9
:1006c00003003a0040c0b30079e8b700610037008a
:1006d000018020009140780030c6b30080cf5000e8
:1006e00005003200018020009140780000c7b3006f
:1006f00080cf500006003a0079c8bf00e44f500098
:1007000003003a0050c0b30079e8b7005100370049
:100710000180200091407800c0c6b30080cf500017
:1007200005003200018020009140780040c6b300ef
:1007300080cf500006003a0079c8bf00e54f500056
:1007400003003a0060c0b30079e8b7004100370009
:100750000180200091407800f0c6b30080cf5000a7
:1007600005003200018020009140780000c7b300ee
:1007700080cf500006003a0079c8bf00e64f500015
:1007800003003a0070c0b30079e8b70031003700c9
:10079000018020009140780030c7b30080cf500026
:1007a00005003200018020009140780040c6b3006f
:1007b00080cf500006003a0079c8bf00e74f5000d4
:1007c00003003a0080c0b30079e8b7002100370089
:1007d000018020009140780050c6b30080cf5000c7
:1007e00005003200018020009140780050c6b3001f
:1007f00080cf500006003a0079c8bf00e84f500093
:1008000003003a0090c0b30079e8b7001100370048
:10081000018020009140780040c6b30080cf500096
:1008200005003200018020009140780010c6b3001e
:1008300080cf500006003a0079c8bf00e84f500052
:1008400003003a0090c0b30079e8b7000100370018
:100850007968ef008fc8bf00e94f50002b003a00c5
:100860000180200091407800d0c5b30080cf5000b7
:100870000a003a00308f8000640060000000e00051
:1008800006003200308f80000020a100308f8800e9
:1008900010c0b30054e8b7004c003700308f800020
:1008a000640060000000e000090032006041800048
:1008b0000280200012417800d1b3200082707800bd
:1008c000604180000000e800604188003f00370080
:1008d0000180200091407800b0c5b30080cf500067
:1008e00033003a00308f8000640060000000e000b8
:1008f00031003a002c28ef005468ef00308f800060
:100900000020a000308f880030003700a8c8bf004a
:10091000e74f50001e003a0001802000914078000f
:1009200070c4b30080cf500003003a0010c0b30081
:10093000a9e8b70025003700018020009140780029
:1009400030c5b30080cf500006003a00a9c8bf00f0
:10095000e14f500003003a0020c0b300a9e8b700ff
:100960001a0037000180200091407800a0c3b30036
:1009700080cf500012003a00a9c8bf00e24f5000db
:1009800011003a0030c0b300a9e8b7000f003700eb
:10099000604180000280200012417800d1b3200025
:1009a000827078000000e80060418800070037008e
:1009b00000000000050037000000000003003700c1
:1009c00000000000010037000000000061418000cd
:1009d000d0152000808f5000010036002c28ef0039
:1009e0008520a9000080fa003400f9004f0178004a
:1009f0004f00be0000400600809fbe003400f8009b
:100a000000002000a00188000000fa00108f800084
:100a10000000a000108f880014c8bf000004e00090
:100a200010003200518120009140780014c8bf00ae
:100a300080cf50000a00310015c8bf000080fb00c5
:100a4000b1972000614078000080fb008010880092
:100a500015c8bf000040e80015e8b70001003700e6
:100a60001468ef008540a9000080fa003400f90006
:100a70004f00be0000400600809fbe00821f78002d
:100a80003400f80000002000a00188000000fa00f7
:100a9000c0108000620060000000e0000100320031
:100aa0001822a900e01080000040780001e8b7009b
:100ab000118020009140780050c5b30080cf5000d5
:100ac00001003a0036a8a800308f80006200600064
:100ad0000000e0002e003a001180200091407800d4
:100ae000d0c5b30080cf50000b003a00308f80009b
:100af000610060000000e00007003200308f8000dd
:100b00000000a100308f8800308f80000010a0000e
:100b1000308f88001e003700308f80006100600039
:100b20000000e0000a003200b04380001180200085
:100b30009140780001417800412e210082707800b8
:100b4000b04380000000e800b04388001000370088
:100b50001180200091407800b0c5b30080cf5000d4
:100b60000b003a00308f8000610060000000e00060
:100b700007003a007628ef00308f80000010a100b7
:100b8000308f8800308f80000000a000308f8800f8
:100b90008700a9000080fa003400f9004f017800b6
:100ba0004f00be0000400600809fbe003400f800e9
:100bb00000002000a00188000000fa00108f8000d3
:100bc0000010a000108f880016c8bf000004e000cd
:100bd00010003200718120009140780016c8bf00db
:100be00080cf50000a00310017c8bf000080fb0012
:100bf00071aa2000614078000080fb00d0108800be
:100c000017c8bf000040e80017e8b7000100370030
:100c10001668ef008720a9000080fa003400f90070
:100c20004f00be0000400600801f78003400f8002e
:100c300000002000a00188000000fa00108f800052
:100c40000060a000108f88000014800030408800f1
:100c50008560a9000080fa003400f9004f00780098
:100c600000400600801f78003400f80000002000db
:100c7000a00188000000fa002004800061006000ec
:100c80000000e000010032008400a9000080fa00aa
:100c90003400f9004f00780000400600801f780003
:100ca0003400f80000002000a00188000000fa00d5
:100cb00030048000610060000000e00001003200ac
:100cc0008600a9000080fa003400f9004f00780087
:100cd00000400600809fbe003400f80000002000a5
:100ce000a00188000000fa00310480000008200004
:100cf000008060000000e0000100320086e0a900f2
:100d00000080fa003400f9004f00be0000400600e9
:100d1000801f78003400f80000002000a001880047
:100d20000000fa0040048000700060000000e00055
:100d3000010032008880a9000080fa003400f90028
:100d40004f00780000400600809fbe003400f8008d
:100d500000002000a00188000000fa00410480008b
:100d600000022000008060000000e000010032006e
:100d700088a0a9000080fa003400f9004f00be00ee
:100d8000004006000040da000000fe000a00fa0001
:100d9000e20f500034003e0060d08000e10f5000b0
:100da00003003200e20f500011003a000c0037003f
:100db000c32020000300e00001003a000040da00f8
:100dc0000c02e200020035001422ef000de2a80040
:100dd0000f42ab000d003a000f42a8000b00370095
:100de000632120000300e00001003a000040da0027
:100df0001602e200020035001e22ef0017e2a800f2
:100e00001942ab0001003a001942a80082017800a3
:100e10000b0037003102fb00e10f500004003a00e4
:100e20000f22ab00feff3a00841088000300370059
:100e30001922ab00feff3a00d41088008301e900bc
:100e40000300e000f3ff3a00e10f500003003a0016
:100e50000f02ab00feff32000b0037001902ab009f
:100e6000feff32000800370033002000b3bf9f00b0
:100e7000c0bf9f00d1bf9f00e2bf9f006a805700a4
:100e8000d80307006fb99700020078000080fa00cd
:100e900000000600000005006022b80006022000e5
:100ea0000000d0008180d2000482d2008582d2006e
:100eb0000000a0000202520083825a0003003100a9
:100ec0000202420083824a000000a1000603e900fa
:100ed000f3ff3a0000000600efff07000400be0029
:100ee00000000600800078000100780030417800a2
:100ef00003c2b300834f5100faff3200e94f5100a3
:100f0000f8ff3200edc14100834f510003003a0069
:100f10008000780013c0b300050037008041eb006b
:100f2000b4c2b300844f510001003a008000780041
:100f30000000eb00020037006a02b9000400410023
:100f40003101fb000203b100e90f5100faff360046
:100f50000304e000010032000000ea000000060087
:100f6000889fbe008a1f7800304478008004780093
:100f700001c2b300814f5400fbff3200e94f54001f
:100f8000f9ff3200d0c2b300804f540003003a0092
:100f9000394478001ac0b300050037000045eb0063
:100fa000b0c2b300804f540001003a0039447800c9
:100fb0006000b8000a003700a200200003002000f3
:100fc0008a03070002cdb300024144000281fb0006
:100fd0008001eb0002004000838048003944780023
:100fe0000881fb000203b100e90f5100f2ff360057
:100ff0000a04e0000200320060001000e0801800e7
:101000004f0578004f04be00000006008001780004
:1010100002003700b15978000201e9000200e00047
:10102000fcff3a000000060080017800808f50002d
:101030000900310002824000800f52000600360095
:101040008401780082004000c36078000201e9005a
:10105000fdff3a00000006000200e000030032003d
:10106000b15978000201e900fbff370000000600db
:101070008001780002003700815978000201e90000
:101080000200e000fcff3a00000006000a00370002
:10109000b04178000304e000030032000201e900df
:1010a000b1cf5100040032008381fb001480fb00ab
:1010b0000080510000000600010278000200e000fc
:1010c000f3ff3a00000005000c00fa00889fbe0004
:1010d00000047800f0ff2700d0bf9f008004eb00e1
:1010e00099bf9f0088bf9f00a8bf9f00200c2000d1
:1010f000b0bf9f0078815700cfb097007080570035
:10110000100007000fb89700094878008fb89700c3
:10111000088050004f04be000080fa000000060066
:10112000d0019000028151004240a9000300340028
:1011300010017800014978000208e80001007800f9
:1011400000000600f6874700889fbe008a9fbe0009
:101150008c9fbe008e1f780000057800a1b79f000d
:10116000020778008004eb0090023700afb09700d0
:101170008100e800a1b79f0051c2b300814f500029
:1011800003003a00afb097000004eb0011003700f5
:10119000ba0090000000fb000168a30007003200c5
:1011a00009017800800078000a007800dcff070061
:1011b0000000e00005003a007c0237008a00780059
:1011c00086020700e10f4000780232008904e8003f
:1011d000760237000100780031417800d3c2b300b5
:1011e000834f51000c00320007003c00edc151005c
:1011f000834f51000a003200ebc14100834f510080
:101200000d003a000800370003c3b300834f5100bc
:1012100009003a00060037000830a000edff370053
:101220000800a000ebff37000810a000e9ff37001e
:101230000820a000e7ff37000818a30001003200d3
:101240000800a1000838a300010032000820a10016
:101250008200fb000103b100e98f50000c003e004a
:10126000000178008000eb006a08b900b201fb00c1
:101270000303b10080804100020078009201fb006e
:101280000303b100e98f5100f7ff36000600370075
:101290008000eb00a3c2b300834f510002003a006c
:1012a000ce0078000000e8008005eb00e2c2b30049
:1012b000904f110009003a0008e0a000644151007d
:1012c000d04f1100030032000001780001027800c5
:1012d00006003700ce0578000000e8000001780025
:1012e000090037006a58b900808541000200780083
:1012f000b201fb000303b100e98f5100f9ff360092
:1013000084007800f5ff370032407800a2b79f00d4
:10131000c3c6b300834f5000250032000f003c00cd
:1013200032c6b300824f50008800320004003c00f7
:101330000004e000220232006b4151000f00370030
:1013400042c6b300824f5000170032006541410091
:10135000824f500094003a001300370032c7b300a8
:10136000824f50001b00320007003c0064415100d6
:10137000824f5000100032000241e800824f5000be
:1013800089003a000f00370052c7b300824f500067
:101390008a00320063414100824f500082003a00cf
:1013a000e0df9f0009003700e0df9f008500370085
:1013b0000840a000d4ff3700e0df9f000860a000d5
:1013c00080003700e0df9f000850a0000870a000f8
:1013d0007c003700e0df9f004e00780000067800b8
:1013e0000000e00001003a00cc9821000c017800d8
:1013f0000000eb00010037000000e800e241780047
:101400000304e000fcff3a00800678000b00e000d7
:10141000030032008d8f5500010031008b067800eb
:101420008005eb008d8f5000010036008d85500047
:10143000680464002a003a00110037003a00900066
:101440000068a300070032000901780001022000b3
:101450000a00780032ff07000000e00006003a00b2
:10146000060037008a00780000022000db01070038
:10147000e10f4000010032008904e8008b05e9001b
:101480000b00e000edff3a008085eb001400370010
:101490003a0090000068a300090032000c007800b8
:1014a000b000fb0000067800090178000a0078000f
:1014b0001bff07000000e00008003a0008003700aa
:1014c0008c0078003100fb00010678008a0078006b
:1014d000c2010700e10f4000010032008904e8006a
:1014e0000d0078008006e9000000e000e8ff3a0007
:1014f0000800e000ad013200110037003a00900012
:101500000068a300070032000901780001022000f2
:101510000a00780002ff07000000e00006003a0021
:10152000060037008a00780000022000ab010700a7
:10153000e10f4000010032008904e8008b05e9005a
:101540000b00e000edff3a00980137004e017800f3
:10155000cf91de00c81ade004818dd004812de0018
:1015600004027000e4df9f000848a3000800320076
:101570000404e00006003200e14f420004003200a3
:10158000f4df9f0082e79f002d002000020037005b
:10159000f2df9f001d002000e2fd2f000f0141003f
:1015a0000206e80099ff3700e0df9f00ecfd2f0006
:1015b0000f0646001d00200094ff3700e0df9f006b
:1015c000080cb30008017800020cb200700064003f
:1015d0000200e0000d003a000000e00002003200ce
:1015e0004e06be00020037004e067800cfe6de0051
:1015f000e00f5600e08f5e000a003d003800b300a7
:1016000060061600e0861e00060037000000e000bd
:10161000020032004e06be00020037004e0678007f
:101620008006eb000b00e00005003a008c85760098
:101630000bf0a7008b05ea008b05e900cf5dde000b
:1016400088017800030cb200e3b79f00000420007b
:10165000808f51002300320003003c000300e000b3
:10166000080032002d003700000820006fb29700fc
:10167000800f52000d003200000c2000800f52003d
:1016800026003a004299210010c0b30064014100d5
:10169000b20f5600a28f5e001f0039000040e80024
:1016a000ea4f5000f9ff3a001b00370010c0b300aa
:1016b0000201200003002000820f5600838f5e008d
:1016c00015003900441add00cc11de0083017200e0
:1016d0004411dd000040e800e84f5000f6ff3a00fa
:1016e0000d00370010c0b30082002000030020006e
:1016f000820f5600838f5e0007003900431add0019
:10170000cd11de00830172004311dd000040e800ce
:10171000eb4f5000f6ff3a00e0df9f006fd99700d3
:101720000200fb008b0f500002003d00ebdf9f002a
:1017300003003700808f550001003d0080057800d0
:101740000100e00003003200630064000100320089
:101750008100e90008e8a300050032008b8f5000eb
:10176000020034008b805000010037008000eb0045
:10177000efd997000300fb000002eb00d4b79f00f5
:10178000808f50000200340000805000d0b79f00ce
:101790000828a30040003200610164000818a3007b
:1017a0000f0032003a0090000068a30006003200eb
:1017b000b10220000200e000010032008180e80058
:1017c000090178000d003700b00220000200e0009f
:1017d000010032000080e8008a0078000e00370027
:1017e0000200e000100032003a0090000068a30000
:1017f0000700320009017800010220000a00780089
:1018000047fe07000000e00006003a00060037002f
:101810008a00780000022000f0000700e10f40007d
:10182000010032008904e8005fb097000000e0008a
:101830005a003200bcb79f00cdb79f0080067800e9
:101840003a0090000068a300070032000901780008
:10185000010320000a00780031fe07000000e000cc
:1018600006003a00060037008a00780000032000d6
:10187000da000700e10f4000010032008904e800af
:101880008d06e900eeff3a00ddb79f003fb69700f6
:10189000cfb6970041003700dfb197000300e000aa
:1018a0001a0032000838a30018003a00bcb79f00a5
:1018b000cdb79f00830678003a0090000068a3002f
:1018c0000700320009017800010220000a007800b8
:1018d00013fe07000000e00006003a000600370093
:1018e0008a00780000022000bc000700e10f4000e1
:1018f000010032008904e8008d06e900eeff3a009d
:10190000ddb79f003fb69700cfb697006101640036
:101910000818a3000f0032003a0090000068a300ee
:1019200006003200b10220000200e0000100320097
:101930008180e800090178000d003700b002200026
:101940000200e000010032000080e8008a00780018
:101950000e0037000200e000100032003a00900054
:101960000068a3000700320009017800010220008e
:101970000a007800eafd07000000e00006003a00d7
:10198000060037008a00780000022000930007005c
:10199000e10f4000010032008904e8000b03e90078
:1019a0006330b90000017800b2b79f004233dd0018
:1019b00040992100000343008e01780093b79f00f7
:1019c00008077800060478005c0037008b05e90002
:1019d000000420006fb29700800f520038003200e0
:1019e00003003c000400e000080032003e00370025
:1019f00000082000efb09700808f500020003200d8
:101a0000000c2000808f500037003a000e48a300e1
:101a1000100032001802be000401be000c00be001f
:101a2000f4b79f0085bf9f001bfd0700e0df9f000c
:101a30000000fb00cf80de007fb297008fba9700d6
:101a40000401be00e90007000006560081865e0022
:101a50000700370018017800110009000286d8003d
:101a6000a2002000110009000280d800e1df9f00e1
:101a70006fd997000243b000e2df9f001a003700e1
:101a8000b09721000e58a30001003200a09621005b
:101a900041992100810054000c01be008100e90041
:101aa000030033008301d1000281d300fbff370024
:101ab000ef006100e0c07800e1df9f000a0037001e
:101ac0000c00be00bfb197008301e90003003300a2
:101ad0008100d1000080d300fbff37006740600029
:101ae0000043b000e0df9f00ba0090006fda97007b
:101af0000400fb000168a300070032000901780020
:101b0000800078000a00780085fd07000000e000f2
:101b100005003a00050037008a0078002f00070012
:101b2000e10f4000010032008904e8003fb0970057
:101b300063005000b0b79f00640454000b00e00045
:101b4000a2ff3a000e0478001fb797000838a300e0
:101b500016003200dfb097000100e00013003400ef
:101b6000010478003a0090000068a30007003200ea
:101b700009017800010220000a00780068fd0700d2
:101b80000000e00006003a00060037008a007800f6
:101b90000002200011000700e10f400001003200a8
:101ba0008904e8000804e900eeff3a002fb197002d
:101bb00012407800e0df9f000004e0006bfd3a0077
:101bc000090078004f0778004f06be004f05be00a1
:101bd0004f04be006f01b10000000600889fbe00e8
:101be00001047800b80090008084eb000118a30085
:101bf0003a003200180190000198a30002003a0058
:101c00000200e00035003a000190a0003104980085
:101c100080047800f90fb2000200e00002003a00f0
:101c200028009000000c7800ea8f540005003a006c
:101c30000178a30003003a0088007800d00020005b
:101c4000e6ff070018009000d8009000810f5000b8
:101c50000b0032000000e800100498001800780023
:101c600009487800000ce80011c0b30060a0210012
:101c700001487800ea8f540018003a000500370048
:101c80008800780009407800170007008004780079
:101c900012003700380090000088a3000f003200c7
:101ca00018019000a80090004800900037fc070041
:101cb00098009000810f500004003200380090001e
:101cc0000003b300300498008084eb000000eb00b8
:101cd0001004980028009000000c7800090078009b
:101ce0004f04be00000006000200fa00889fbe00fc
:101cf000a0ff9f0001047800380090000068a30056
:101d000033003a00e200600005003a000003b3002f
:101d100030049800110498000080eb002e0037007a
:101d2000d80490000900e00006003a0012002000ec
:101d3000e68057004800900014fc07001904980042
:101d400023003700a80090000100e00008003a00de
:101d500091a0210021049800010c780021002000ae
:101d600051049800110498000030a000300498003d
:101d700018019000a80090004800900003fc0700a4
:101d8000280090008080eb0011049800aff89700c5
:101d900001487800000ce8002ff89700ea4f500047
:101da0000b003a00380090000088a30008003200c1
:101db00018019000a800900048009000f3fb070075
:101dc0000000eb0010049800a8009000010c7800bf
:101dd000aff897000100fb004f04be000080fa003e
:101de0000000060000c0da0000000600020ab90088
:101df000001bb9000200b8008100420081004300ce
:041e000000000600d8
:020000040000fa
:101e0400202000004750000052530000204d0000e5
:101e14006f640000756c0000652000002020000045
:101e24000020000020200000566500007220000001
:101e3400352e0000342e0000332000002020000046
:101e440020000000696e000074650000726e0000de
:101e54006574000000200000202000002020000005
:101e6400202000002020000020200000202000006e
:101e74002020000020000000205000006c650000bd
:101e84006173000065200000776100006974000040
:101e94002e2000002020000000200000506c0000d4
:101ea400656100007365000020770000616900002f
:101eb400742e00002e20000020000000205000009e
:101ec4006c6500006173000065200000776100000c
:101ed400697400002e2e00002e2000000041000036
:101ee400542b0000515000004f570000443d0000a7
:101ef400300000004d6f0000646500006d2000009c
:101f04004e6f000074200000526500006164000000
:101f140079200000005300005453000025300000d5
:101f240032640000310000004154000026460000e5
:101f340000410000544500003000000041540000fe
:101f44002b51000043460000473d0000226e000074
:101f540077730000636100006e6d00006f64000021
:101f6400652200002c30000000410000542b0000ca
:101f740051530000494d00005354000041540000e7
:101f84003d31000000410000542b0000434d00008f
:101f9400474600003d31000000410000542b000082
:101fa40043530000435300003d2200004753000008
:101fb4004d22000000410000542b0000434e00005d
:101fc4004d4900003d3200002c3100002c3000004f
:101fd4002c3000002c30000000410000542600008a
:101fe40057000000415400002b5100004e570000e0
:101ff400494e0000464f0000003a00002022000035
:1020040000200000485700002052000065730000c3
:1020140065740000204400006f6e0000652000001d
:1020240020000000534900004d2000002020000043
:1020340000200000202000005265000073650000ad
:1020440074200000446f00006e6500002020000032
:1020540020000000534900004d630000686b00003d
:1020640000410000542b000051530000494d000072
:1020740053540000415400003f0000005049000048
:102084004e630000686b000000410000542b000008
:1020940043500000494e00003f0000005349000037
:1020a4004d5200004547000000410000542b000041
:1020b40043520000454700003f000000415000002b
:1020c4004e5300004554000000410000542b000012
:1020d4005149000043530000475000003d310000c7
:1020e4002c3100002c220000006100006972000005
:1020f400746500006c67000070720000732e0000ad
:10210400636f00006d220000005400004154000081
:10211400412e0000444f0000434f00004d4f00008b
:102124002e4900004e540000455200004e45000068
:1021340054220000006900006e7400006572000003
:102144006e650000742200000061000069720000e6
:10215400636500006c67000070720000732e00005d
:102164007072000022000000627300006e6c0000b8
:102174006e650000742200000073000068770000a0
:1021840061700000696e000074220000007300009a
:10219400756e000073750000726600002200000076
:1021a400736800007761000070220000006800007e
:1021b400692d0000696e000074650000726e0000f5
:1021c4006574000022000000652d000069640000b1
:1021d4006561000073220000006d00006977000053
:1021e4006f7200006c640000220000006d69000042
:1021f400776f0000726c000064630000617200007d
:1022040064220000007700007777000022000000bd
:102214006a6900006f6e000065740000220000000f
:10222400220000002c220000202200002c220000aa
:10223400202200002c310000004900004e4900001b
:102244004f4b000000530000545300003030000096
:102254003200000052440000590000007064000085
:102264007064000065610000637400002d64000068
:102274006f6e00006500000055520000432d000001
:10228400636c00006f730000656400002020000090
:1022940020000000434600004700000045520000b3
:1022a4005230000030340000004300004647000074
:1022b400204f00004b000000455200005230000047
:1022c40030330000004c000043530000434f000033
:1022d4004d00000042550000463900004f4b0000fd
:1022e4002a4c000025300000336400002a5300000b
:1022f40025300000326400002a4600003925000021
:1023040030320000642a0000523100002530000001
:10231400346400002a5300003125000030340000ea
:10232400642a0000523200002530000034640000aa
:102334002a5300003225000030340000642a0000d3
:102344005233000025300000346400002a5300009a
:102354003325000030340000642a000000520000dd
:1023640053540000414c00004c0000005253000044
:10237400544100004f4b00000020000020200000ca
:10238400416c00006c2000004d6500006d6f000082
:10239400727900002020000020000000205200007c
:1023a4006573000065740000202000005375000070
:1023b4006363000065730000732000000052000096
:1023c400535400003030000031000000525300002c
:1023d400543100004f4b0000002000002042000058
:1023e400616e00006b200000312000004461000099
:1023f40074610000202000002000000052530000ff
:1024040054300000303200000052000053540000e9
:10241400324f00004b000000202000004261000009
:102424006e6b000020320000204400006174000044
:1024340061200000202000000052000053540000de
:1024440030300000330000005253000054330000c9
:102454004f4b00000020000020420000616e00008d
:102464006b20000033200000446100007461000010
:1024740020200000200000004750000053200000ee
:102484004f4e000000470000504f00004e4f000028
:102494004b00000020200000202000002047000006
:1024a40050530000204f00004e2000002020000068
:1024b4002020000000470000505300004f46000059
:1024c40046000000475000004f4600004f4b0000fc
:1024d40000200000202000002020000047500000c1
:1024e400532000004f46000046200000202000003a
:1024f40020000000535400004154000055530000d4
:102504000054000045530000543000003100000026
:10251400544500005354000030320000004c0000c9
:102524004f41000044440000460000004c440000b9
:10253400444600004f4b0000005300004554000087
:102544000053000045540000204f00004b000000e1
:102554004d57000052000000535300004752000042
:10256400575200000053000053430000575200002c
:1025740000530000474c000057520000004d00007b
:102584005244000000530000534700005252000020
:102594004400000053530000435200004400000074
:1025a400534700004c520000440000005653000002
:1025b4004352000044000000564700004c52000003
:1025c4004400000045520000523000003032000048
:1025d400004500005252000030300000310000007d
:1025e4002020000053740000617400007573000023
:1025f4003a20000050410000535300002020000006
:102604000020000020530000746100007475000075
:10261400733a000020460000414900004c200000ad
:1026240020000000202000002020000020410000a5
:1026340049520000544500004c20000020200000b6
:102644002020000000200000202000005441000051
:1026540054410000204400004f4300004f4d00004f
:102664004f20000020000000202000002020000057
:1026740020200000494400004541000020200000c3
:102684002020000020200000002000002020000066
:10269400202000004149000052430000454c000046
:1026a4002020000020200000200000002020000046
:1026b4002020000020200000425300004e4c000067
:1026c4002020000020200000202000000020000026
:1026d4002020000020200000535400004f5200002e
:1026e40045440000202000002020000020000000bd
:1026f400417400002b51000049520000454700007e
:1027040041500000503d00000022000061690000bb
:1027140072740000656c0000677000007273000042
:102724002e6300006f6d000022000000227700007d
:10273400777700002200000022540000415400007a
:10274400412e0000444f0000434f00004d4f000055
:102754002e4900004e540000455200004e45000032
:10276400542200000022000061690000726300002e
:10277400656c000067700000727300002e7000002a
:102784007222000000220000696d000069730000dd
:102794002f6900006e740000657200006e65000011
:1027a4007422000000220000627300006e6c0000be
:1027b4006e650000742200000022000072630000b5
:1027c4006f6d00006e65000074220000002200009e
:1027d400756e0000696e00006f7200002200000038
:1027e4002c220000202200002c22000020220000c5
:1027f4000044000065660000617500006c74000010
:10280400732000004c6f00006164000065640000e8
:1028140021000000202000002020000020200000d3
:1028240020200000202000002020000020200000a4
:102834002000000020200000524500005345000005
:1028440054540000494e0000472e00002e2e000074
:102854002020000000200000202000002053000061
:10286400494d00002043000068650000636b0000d0
:102874002020000020000000426100006c61000084
:102884006e6300006520000043680000656300007b
:102894006b20000020200000004100005444000090
:1028a40000200000534d0000532600004750000054
:1028b40052530000204f00005645000052200000f3
:1028c4000020000047500000525300002044000044
:1028d40041540000412000004f56000045520000c2
:1028e400005300004d530000204c0000494d0000ef
:1028f40049540000204f00005645000052200000bb
:1029040000520000256400003a25000034750000e0
:1029140020530000256400003a25000034750000af
:10292400004c00003a2500003275000020460000eb
:10293400393a000025750000200000004c3a0000e0
:10294400253200007520000046250000643a00008e
:102954002575000020000000202000002049000010
:102964004e5300004552000054200000534900001b
:102974004d200000202000000042000055460000c9
:10298400256400004f4b00002a4c00002530000055
:10299400336400002a530000253000003264000034
:1029a4002a4600003925000030320000642a000065
:1029b4005231000025300000346400002a53000026
:1029c4003125000030340000642a00005232000037
:1029d40025300000346400002a5300003225000032
:1029e40030340000642a0000523300002530000017
:1029f400346400002a530000332500003034000002
:102a0400642a0000004c0000656e0000677400003a
:102a1400682f000025300000366400002f250000d8
:102a240030360000642f00002530000036640000ba
:102a34002f00000041640000647200006573000010
:102a4400732f000025300000366c0000752f000045
:102a540025300000366c0000752f00002530000082
:102a6400366c0000752f0000005200006563000002
:102a74004c6900006d2f000025300000366c00000a
:102a8400752f000025300000366c0000752f000003
:102a940025300000366c0000752f00000052000045
:102aa400312f000025300000346400002f52000054
:102ab400322f000025300000346400002f52000043
:102ac400332f000025300000346400002f2f000055
:102ad400533100002f25000030340000642f000023
:102ae400533200002f25000030340000642f000012
:102af400533300002f25000030340000642f000001
:102b04000025000030320000640000005b0000007b
:102b14005d00000053540000415400005553000070
:102b24002a4c000025300000336400002a530000c2
:102b340025300000326400002a46000025640000ad
:102b440025300000326400002a52000031250000c4
:102b540030340000642a00005331000025300000a6
:102b6400346400002a520000322500003034000092
:102b7400642a000053320000253000003464000051
:102b84002a5200003325000030340000642a00007b
:102b94005333000025300000346400002a00000094
:102ba4005354000041540000555300002a4c0000c7
:102bb40025300000336400002a5300002530000053
:102bc400326400002a46000039250000303200003b
:102bd400642a0000523100002530000034640000f3
:102be4002a5300003125000030340000642a00001c
:102bf4005232000025300000346400002a530000e3
:102c04003225000030340000642a000052330000f2
:102c140025300000346400002a53000033250000ee
:102c240030340000642a0000004d000057520000b8
:102c3400204f00004b000000535300004752000097
:102c440057520000204f00004b0000005353000077
:102c540043570000522000004f4b00000053000077
:102c6400474c000057520000204f00004b0000006a
:102c74004d520000442a0000005300005347000056
:102c840052520000442a0000002500003164000074
:102c94000053000053430000524400002a00000087
:102ca4002533000075000000534700004c5200001b
:102cb400442a000000250000346c00007500000068
:102cc4005653000043520000442a0000002500002f
:102cd40030330000752f00002530000033750000ec
:102ce400253000003375000000560000474c0000fa
:102cf400524400002a00000025300000376c000018
:102d0400752f000025300000346c0000752500008c
:102d14003033000075000000617400002b63000074
:102d24007371000000430000535100000061000073
:102d340074000000415400002b5100004941000080
:102d4400435400003d310000004f00004b000000e0
:102d540045520000524f0000520000004154000050
:102d64002b51000049440000454100004354000039
:102d74003d31000000410000542b00005149000087
:102d84004f500000454e00003d3100002c30000043
:102d94002c22000054430000502200002c2200008a
:102da40077770000772e00006c63000073700000da
:102db400617900006c6f0000616400002e690000fe
:102dc4006e2200002c380000302c0000302c000053
:102dd40031000000415400002b5100004953000011
:102de400454e0000443d0000300000004154000006
:102df4002b510000494300004c4f00005345000094
:102e04003d300000005000004f53000054200000eb
:102e14002f4700005053000044410000544100007b
:102e24005765000062530000657200007669000077
:102e3400636500002f470000505300004461000008
:102e4400746100005365000072760000696300003d
:102e5400652e0000617300006d7800002f460000ad
:102e64006978000065640000426f00006479000026
:102e74002048000054540000502f0000312e000060
:102e840031000000486f0000737400003a20000015
:102e940077770000772e00006c63000073700000e9
:102ea400617900006c6f0000616400002e6900000d
:102eb4006e000000436f00006e740000656e000039
:102ec400742d000054790000706500003a20000061
:102ed40061700000706c00006963000061740000a0
:102ee400696f00006e2f0000782d000077770000d6
:102ef400772d0000666f0000726d00002d750000d4
:102f0400726c0000656e0000636f00006465000071
:102f140064000000436f00006e740000656e0000e2
:102f2400742d00004c6500006e670000746800009a
:102f34003a000000253000003375000000700000e6
:102f4400726f0000746f0000636f00006c3d00003e
:102f5400005b0000005d0000004c000043530000d3
:102f64002a2a00004f4b0000004c0000435300008d
:102f74002a4e00004f4b00000000000041540000a6
:102f84002b4300004d470000463d00003100000087
:102f94004f4b000000410000542b0000435300003d
:102fa400435300003d220000475300004d2200001f
:102fb40000410000542b0000434d00004753000023
:102fc4003d2200002b0000002200000045520000ba
:102fd400524f0000520000000d0a0000534d000043
:102fe40053200000437400003a25000033750000ac
:102ff4002f2500003375000000200000534d000011
:1030040053200000536500006e7400002046000049
:10301400616900006c65000064000000202000006d
:10302400202000002020000020200000202000009c
:1030340020200000202000002000000020200000ac
:10304400200000002020000020200000202000009c
:1030540020200000202000002020000000000000ac
:10306400415400002b51000047500000533d000024
:1030740031000000202000002047000050530000d1
:10308400202000003120000020200000202000002b
:1030940020200000002000002020000047500000f5
:1030a40053200000203200002020000020200000d7
:1030b4002020000020000000415400002b5100009b
:1030c40047500000534c00004f4300003d320000c5
:1030d4000045000052520000353000003500000069
:1030e4004552000052350000313600000000000057
:020000040000fa
:1030f4000200fa0000702000103a88000000eb0083
:10310400000f7800010037001e0fe800703e200019
:103114009e007800808f5000fbff3c0060842700f5
:10312400103a880070a52900103a88000080fa003f
:10313400000006000000fa00130a070021f028002e
:1031440010c0b300351e070031f1280020c0b300c1
:10315400321e070010c0b300eb240700302120000a
:1031640080418800e086200011002000a21e20007b
:10317400030020005f200700200020000100200041
:103184007a090700e18620009140780070c4b300fa
:1031940080cf50000b0032007c0c0700360e070075
:1031a40080c0b30056e8b70056c8bf000000fb005b
:1031b4000001780041f22800d01f210092f7070097
:1031c40001003700b4080700d1f2280010c0b30092
:1031d400121e0700e1f3280020c0b3000f1e0700f1
:1031e400f1f4280020c0b3000c1e070001f62800eb
:1031f40020c0b300091e0700109580006101b800cb
:103204002095800031958000800f5100818f5900f6
:1032140003003600d029210011c0b3000148780012
:10322400709580006101b8008095800091958000c0
:10323400800f5100818f590003003600902a21002d
:1032440011c0b30001487800d09580006101b80036
:10325400e0958000f1958000800f5100818f590026
:1032640003003600502b210011c0b3000148780040
:103274004e68a8002d00370041438000f05227001b
:10328400808f50001a00360041438000905327007d
:10329400808f500016003e00e2152000010220003d
:1032a400d0b3200071f707002c28ef00d522a90025
:1032b400a100200010f72800720a070082c8bf008e
:1032c4000040e80082e8b700d0c0b300610a0700fc
:1032d400a0c0b3005f0a0700e2152000010220002d
:1032e400d0b3200061f707002c28ef000f0037004f
:1032f40041438000f0a52e00808f50000b00360063
:103304004e68a9006828ef00c1f7280020c0b30068
:10331400c21d0700d1f2280010c0b300bf1d070072
:1033240010c0b300782407000f003700f0b320006a
:103334009040780020c5b30080cf50000a003200ce
:1033440000b420009040780040c4b30080cf500007
:103354000500320010b420009040780090c5b300fe
:1033640080cf5000c4ff3a004e68a900e215200047
:1033740001022000d0b320003cf707002c28ef0006
:103384001b000700e215200001022000d0b320003a
:1033940036f707002c28ef0080418000801f78005a
:1033a400d0f82800801f7800208c200045f7070003
:1033b400e487570061002000208c2000c011070022
:1033c4000202200001022000208c200027f70700c1
:1033d400d522a900510e0700740107001604070046
:1033e4000a010700c9000700c91a0700f8ff3700df
:1033f4000000fa004100200060f92800210a0700bb
:10340400d0c0b300130a0700a0c0b300110a07001c
:103414000071220001002000d408070041002000b0
:10342400b0f92800170a0700d0c0b300090a070042
:10343400a0c0b300070a07000071220001002000a9
:10344400ca080700e215200001022000d0b32000c2
:1034540006f707002c28ef006101200000fa28007d
:10346400080a0700d0c0b300fa090700a0c0b300df
:10347400f80907000071220001002000bb080700c2
:10348400e215200001022000d0b32000f7f6070067
:103494002c28ef00d100200070fb2800f909070058
:1034a400d0c0b300eb090700a0c0b300e9090700ce
:1034b40000e2240001002000ac08070020c0b30093
:1034c40011240700e215200001022000d0b32000df
:1034d400e6f607002c28ef009100200050fc28009d
:1034e400e8090700d0c0b300da090700a0c0b300a0
:1034f400d809070000712200010020009b08070082
:1035040020c0b30000240700e215200001022000bf
:10351400d0b32000d5f607002c28ef00d1002000fe
:10352400f0fc2800d7090700d0c0b300c909070080
:10353400a0c0b300c70907000071220001002000e9
:103544008a080700e215200001022000d0b3200001
:10355400c6f607002c28ef0011012000d0fd28003a
:10356400c8090700d0c0b300ba090700a0c0b3005f
:10357400b809070000712200010020007b08070041
:10358400e215200001022000d0b32000b7f60700a6
:103594002c28ef0041002000f0fe2800b9090700a4
:1035a400d0c0b300ab090700a0c0b300a90907004d
:1035b40000712200010020006c080700e2152000c1
:1035c40001022000d0b32000a8f607002c28ef0049
:1035d4000080fa00000006000000fa006dc8bf0079
:1035e4000004e0000f003a006c68ef00e2152000d0
:1035f40001022000d0b320009cf607002c28ef0025
:10360400a100200040ff28009e090700d0c0b3009d
:1036140090090700a0c0b3008e09070010c0b300d2
:103624006de8b7006dc8bf00e14f500035003a00a7
:1036340060418000f30f5000320036003200200059
:10364400f1ff280070b420008ff607000000e000ae
:103654002c003a006a68ef00250037006ac8bf00f2
:103664000000fb006d004000d1b3200061407800f1
:103674000004e0001b0032006ac8bf000000fb0029
:103684006d004000d1b32000e140780020c2b300b7
:1036940080cf50000d0032006cc8bf008000fb00da
:1036a400a2862000124178000201fb006d01410056
:1036b400d3b32000e34179005227210003f17800bd
:1036c4000040e8006ce8b70006003700e21520006f
:1036d40001022000d0b3200064f607006d68ef00fb
:1036e400080037006ac8bf000040e8006ae8b70075
:1036f400a18620009140780030c6b30080cf5000ee
:10370400d6ff34000080fa00000006000000fa0032
:103714004ac8bf00e44f500027003a008014070055
:103724005828ef005a28ef00b04480000000e00061
:1037340012003a00204380003143800061004000c1
:10374400e080480020438800314388002243800001
:10375400334380000065240001002000800f5100e5
:10376400818f5900070036006428ef006628ef00b7
:1037740010c0b3004de8b700020037006428ef0022
:103784006628ef004143800000532700808f5000db
:103794001c0036008fc8bf000004e00003003200a4
:1037a400a8c8bf000004e00016003a006828ef0033
:1037b4003e170700130037006428ef006628ef0067
:1037c400c0428000d142800061004000e080480097
:1037d400c0428800d1428800c2428000d3428000a7
:1037e400f0c9280001002000800f5100818f59008a
:1037f400040036005828ef005a28ef0010c0b30028
:103804004de8b7000080fa00000006000000fa004e
:103814004dc8bf00e14f500062003a007468ef00e9
:1038240082c8bf000040e80082e8b70082c8bf0039
:10383400e54f50000d00320082c8bf00ef4f50002a
:103844000a0032002188200091407800d0c2b300e1
:1038540080cf50000500320021882000914078007c
:1038640090c6b30080cf500015003a008068ef0086
:103874003100290010c0b300681c070020c0b30049
:1038840021230700d542a9001b1e070010c0b30066
:103894001d230700d542a800171e0700a0c0b300cf
:1038a40019230700218820009140780080c6b300c6
:1038b40080cf50001a0034008268ef0019003700ee
:1038c400208d20006200200041012900cef5070070
:1038d400218d200020c0b300501c070002012000ed
:1038e400b1012900208c2000c7f50700218c20009d
:1038f40010c0b300491c0700a100200010f72800e5
:10390400e0080700d0c0b300d2080700a0c0b3008d
:10391400d0080700a0c0b300fb2207000100370055
:10392400000000009628ef004d68ef004a68ef00a1
:103934004b68ef00e215200001022000d0b3200004
:10394400caf507008828ef008a28ef004e48a9002e
:103954008e68ef008c28ef008f68ef008fc8bf00df
:1039640098e8b700a868ef005828ef005a28ef003d
:103974006428ef006628ef00a968ef00a9c8bf001b
:10398400a8e8b700420120000102200050272100ce
:10399400b6f5070096fe070010c0b300da22070050
:1039a400020007000080fa00000006000000fa0090
:1039b4004ac8bf00e44f5000f80132004ac8bf00b3
:1039c4000004e00076003a004bc8bf000004e000a9
:1039d40013003a0062002000c1022900708c21000b
:1039e40089f50700c100200030032900a50807005d
:1039f400d0c0b30097080700a0c0b3009508070023
:103a0400e215200001022000d0b3200097f5070042
:103a14002c28ef0010c0b3004be8b700d0013700ea
:103a2400f0b3200090407800b0c2b30080cf5000c3
:103a34002b003a0000b420009040780010c5b30079
:103a440080cf500026003a0010b420009040780047
:103a540030c5b30080cf500021003a0060b420008c
:103a64009040780010c4b30080cf50001c003a008e
:103a740080b4200090407800a0c3b30080cf5000f1
:103a840017003a00a0b420009040780010c3b3009f
:103a940080cf500012003a00c0b42000904078005b
:103aa40010c3b30080cf50000d003a00d0b4200002
:103ab40010407800ed4f500009003a00e0b42000b7
:103ac40010407800ea4f500005003a004b68ef00c0
:103ad40010c0b3004ae8b7005c68ef00a0013700eb
:103ae400f0b3200090407800b0c2b30080cf500003
:103af40080013a0000b420009040780010c5b30063
:103b040080cf50007d013a0010b42000904078002e
:103b140030c5b30080cf50007a013a0060b4200071
:103b24009040780010c4b30080cf500077013a0071
:103b340080b4200090407800a0c3b30080cf500030
:103b440074013a00a0b420009040780010c3b30080
:103b540080cf500071013a00c0b42000904078003a
:103b640000c3b30080cf50006e013a00d0b42000ef
:103b740010407800ed4f50006c013a00e0b4200092
:103b840010407800ea4f50006a013a004b68ef0099
:103b94004a68ef0010c0b3005ce8b700700137005a
:103ba4004ac8bf00e14f50003e003a004bc8bf0076
:103bb4000004e00016003a0062002000010429001d
:103bc400708c210010f50700e2152000010220008e
:103bd400d0b3200025f507002c28ef008100200039
:103be4007004290027080700d0c0b3001908070093
:103bf400a0c0b3001708070010c0b3004be8b7001b
:103c04008038210001002000d80607005401370045
:103c140060b420009040780020c5b30080cf5000ed
:103c24004f013a0090b420009040780040c4b300a3
:103c340080cf50004a013a00a0b4200090407800a0
:103c440090c5b30080cf500045013a00f0b4200085
:103c540090407800f0c4b30080cf500040013a0097
:103c640000b5200090407800b0c4b30080cf50006d
:103c74003b013a0010b5200010407800ed4f500091
:103c840037013a0020b5200010407800ea4f500078
:103c940033013a004b68ef0020c0b3004ae8b70094
:103ca4002f0137004ac8bf00e24f500063003a00ba
:103cb4004bc8bf000004e00016003a006200200078
:103cc40001052900708c2100cff40700e2152000c3
:103cd40001022000d0b32000e4f407002c28ef00f8
:103ce4008100200070052900e6070700d0c0b3005a
:103cf400d8070700a0c0b300d607070010c0b30060
:103d04004be8b70080382100010020009706070027
:103d14001301370080b420009040780010c3b30032
:103d240080cf50000500320080b42000904078001d
:103d340050c3b30080cf500016003a00d0b4200026
:103d440090407800f0c4b30080cf500011003a00d6
:103d5400e0b4200090407800b0c4b30080cf50009d
:103d64000c003a00f0b4200010407800ed4f5000f1
:103d740008003a0000b5200010407800ea4f5000d7
:103d840004003a004b68ef0030c0b3004ae8b700c3
:103d9400f300370080b420009040780000c3b300e3
:103da40080cf50000f00320080b420009040780093
:103db40020c3b30080cf50000a00320080b420003a
:103dc4009040780030c3b30080cf5000050032002b
:103dd40080b420009040780040c3b30080cf5000ee
:103de400d6003a00d0b4200090407800f0c4b3006c
:103df40080cf5000d3003a00e0b420009040780017
:103e0400b0c4b30080cf5000d0003a00f0b420001a
:103e140010407800ed4f5000ce003a0000b520006d
:103e240010407800ea4f5000cc003a004b68ef0095
:103e340020c0b3004ae8b700c90037004ac8bf0031
:103e4400e34f5000c6003a004bc8bf000004e00036
:103e54008e003a006200200001062900708c2100c7
:103e640069f40700e215200001022000d0b320000d
:103e74007ef407002c28ef00f100200070062900d2
:103e84008007070034c8bf000004e00004003a00c3
:103e9400f1002000700729007a0707006e00370040
:103ea40034c8bf00e14f500004003a005101200023
:103eb40070082900730707006700370034c8bf0083
:103ec400e24f500004003a0091002000d00929007c
:103ed4006c0707006000370034c8bf00e34f500090
:103ee40004003a00e1002000700a29006507070079
:103ef4005900370034c8bf00e44f500004003a00b2
:103f040081002000600b29005e0707005200370083
:103f140034c8bf00e54f500004003a00910020006f
:103f2400f00b2900570707004b00370034c8bf00c7
:103f3400e64f500004003a0081002000900c290054
:103f4400500707004400370034c8bf00e74f500053
:103f540004003a0061002000200d290049070700f1
:103f64003d00370034c8bf00e84f500004003a0059
:103f7400c1002000900d29004207070036003700d9
:103f840034c8bf00e94f500004003a00810020000b
:103f9400600e29003b0707002f00370034c8bf001c
:103fa400ea4f500004003a0081002000f00e29007e
:103fb400340707002800370034c8bf00eb4f500017
:103fc40004003a00c1002000800f29002d070700db
:103fd4002100370034c8bf00ec4f500004003a0001
:103fe4004100200050102900260707001a0037005e
:103ff40034c8bf00ed4f500004003a0071002000a7
:10400400a01029001f0707001300370034c8bf00a1
:10401400ee4f500010003a0056c8bf000000fb00ed
:1040240080007800d01f210016070700110020002f
:10403400201129001307070056c8bf000000fb0029
:1040440080007800d01f21002c07070011002000f9
:104054002011290029070700a10020004011290090
:1040640008070700d0c0b300fa060700a0c0b300d9
:10407400f80607008038210001002000bb05070076
:1040840010c0b3004be8b70035003700f0b3200090
:1040940090407800f0c4b30080cf500030003a0064
:1040a40000b4200090407800b0c4b30080cf50002a
:1040b4002b003a0010b4200010407800ed4f50005f
:1040c40027003a0020b4200010407800ea4f500046
:1040d40023003a0062002000f1112900708c2100b5
:1040e400c9f307004b68ef0040c0b3004ae8b700cb
:1040f4001b0037000000000019003700000000001a
:104104001700370000000000150037000000000011
:104114001300370000000000110037000000000009
:104124000f003700000000000d0037000000000001
:104134000b003700000000000900370000000000f9
:1041440007003700000000000500370000000000f1
:1041540003003700000000000100370000000000e9
:104164004bc8bf00e14f50000c003a0031448000be
:1041740010c0b300027d2000828f500001003e0079
:104184000040eb008100e800314488000004e000b6
:10419400020032008628ef004b68ef0000b42000d4
:1041a4009040780030c4b30080cf50002f003a0014
:1041b40010b4200090407800d0c4b30080cf5000e9
:1041c4002a003a0020b420009040780050c4b30084
:1041d40080cf50000500320020b4200090407800c9
:1041e40030c5b30080cf500020003a0050b4200006
:1041f4009040780020c5b30080cf50001b003a00e7
:10420400b0b420009040780010c3b30080cf5000b9
:1042140016003a00c0b420009040780000c3b300f8
:1042240080cf500011003a00d0b420001040780034
:10423400ed4f50000d003a0010c0b3005ce8b70029
:104244008628ef004b68ef004a68ef00e215200073
:1042540001022000d0b3200084f307002c28ef00d3
:104264006100200050122900150e070032002000c2
:10427400c1122900f0b3200083f307000000e0001e
:1042840017003a008628ef004b68ef004a68ef00f9
:10429400e215200001022000d0b3200073f30700d0
:1042a4002c28ef00a968ef00a9c8bf00a8e8b70050
:1042b400a8c8bf008fe8b7009628ef008828ef0051
:1042c4008a28ef004e48a9008e68ef008c28ef0082
:1042d4005828ef005a28ef006428ef006628ef0002
:1042e40000b420009040780010c5b30080cf500087
:1042f40025003a0020b420009040780050c5b30057
:1043040080cf500020003a0050b420009040780044
:10431400a0c3b30080cf50001b003a0080b420003b
:104324009040780000c7b30080cf500016003a00d8
:10433400a0b420009040780000c7b30080cf5000a4
:1043440011003a00b0b420009040780040c6b30099
:1043540080cf50000c003a00d0b420009040780088
:1043640010c6b30080cf500007003a008f68ef00fa
:104374008fc8bf0098e8b700a868ef00d1002000fc
:10438400001329005d06070000b420009040780067
:1043940010c5b30080cf500025003a0020b420009f
:1043a4009040780050c5b30080cf500020003a0000
:1043b40050b4200090407800a0c3b30080cf5000d8
:1043c4001b003a0080b420009040780030c6b3004f
:1043d40080cf500016003a00a0b42000904078002e
:1043e400f0c6b30080cf500011003a00b0b42000f2
:1043f4009040780030c7b30080cf50000c003a00e2
:10440400d0b420009040780040c6b30080cf500064
:1044140007003a008f68ef008fc8bf0098e8b70024
:10442400a868ef00d1002000e0132900330607003c
:104434000080fa00000006005002fa00889fbe00c7
:104444000040eb00004f7800ec004700f900090041
:104454008018eb000000eb001007980000202000fb
:104464000e004000070009000018eb000001b10035
:104474000000eb00200798006000b80030079800a7
:1044840041079800002120000e0040001e00090092
:104494000018eb000058eb00f003b100308f8000ef
:1044a400620060000000e000f8033200b2438000c4
:1044b400120798006c0047001e019000412e210055
:1044c400d1f207001e0090008080e9006c004700d4
:1044d400d50a070080438800002020000e00400019
:1044e4000201200001022000e0f207001e009000fb
:1044f4000080e900ec00470080804000002020009c
:104504000e00400022002000bff20700002020001f
:104514000e00400072f207008000780080438000a3
:10452400808f500003003a0010c0b300004f7800a1
:10453400020037000040eb00004f78001e40780076
:10454400e14f50009a033a004e4890000000fb00ef
:104554001003b100200798006c0047000000e80039
:1045640032002000c1142900c7f207000000e00057
:10457400f4003a001e009000ef0f5000f1003a00e2
:10458400002020000e004000020120000102200053
:10459400b6f207006c0047006400400003202000ce
:1045a4008e814100320020008000780003007800f2
:1045b40095f20700002020000e00400048f207009a
:1045c4000080e90050079800002020000e00400001
:1045d4000201200001022000a4f207006c00470041
:1045e40067004000032020008e814100620020000b
:1045f400800078000300780083f207000020200088
:104604000e00400055f2070030079800410798005b
:10461400de009000401f2000808f500007003e0005
:104624003e019000ce019000301f200001002000c8
:10463400800f5100818f59001a003e006100200054
:10464400001529001e0d07000000eb00100798005c
:104654009e019000b3438800b0438000004078007e
:10466400614060000080fb006100600000004000c9
:10467400318f80000110a10001007000308f88008c
:10468400421f200001022000402e210077f2070083
:104694006c004700421f20000102200073f2070053
:1046a4007a0337002e009000e20f500087003e008e
:1046b4002e0090006600b90080007800a028210038
:1046c40000804000de009000010878002e00900079
:1046d4006600b90080007800a02821000080400016
:1046e400000178002e0090000000e8000000400067
:1046f4008000eb0023002000821a0700a02821007c
:10470400210020002200200003002000f91a0700e5
:104714000029210021002000420020000300200085
:10472400f41a070060292100210020006200200003
:1047340003002000ef1a07002e0090006600b90065
:1047440080007800c0282100008040003e019000d5
:10475400ce0190000288be002e0090006600b900d1
:10476400000078008080e800a0282100008040003c
:10477400000178002e0090000080e8004200dd0077
:104784008000eb00430020005e1a0700c0282100cf
:10479400410020008200200003002000d51a0700f9
:1047a4002029210041002000c20020000300200035
:1047b400d01a0700802921004100200002012000b6
:1047c40003002000cb1a070092948000a394800079
:1047d4006094800071948000000051008180590031
:1047e40061025000e0825800509480008000eb0089
:1047f4000001be000400be00a6f107002095880059
:1048040031958800c2948000d394800090948000f5
:10481400a194800000005100818059006102500081
:10482400e0825800809480008000eb000001be000c
:104834000400be0097f107008095880091958800d8
:10484400c0948000d1948000020020002300200046
:104854000002510081825900b09480008000eb0076
:104864000001be000400be008af10700e095880044
:10487400f1958800402a21004300200000017800bf
:1048840040012000010020001e1a0700002b210017
:104894004300200000017800800120000100200076
:1048a400181a0700c02b21004300200000017800e3
:1048b400c001200001002000121a0700610020003e
:1048c400701529007e0c0700da0237000000eb00a7
:1048d400100798000040eb00004f780061002000b2
:1048e400e0152900760c07000000eb001007980083
:1048f4009e019000b3438800b043800000407800dc
:10490400614060000080fb00610060000000400026
:10491400318f80000110a10001007000308f8800e9
:10492400421f200001022000402e2100cff1070089
:104934006c004700421f200001022000cbf1070059
:10494400d2023700519480001e009000808f5000e6
:1049540003003a002e0090000000e0000e00320038
:10496400819480001e009000808f500003003a0064
:104974002e009000e10f500007003200b194800037
:104984001e009000808f50007a003a002e009000a4
:10499400e20f500077003a006c0047008000780076
:1049a4002e009000f9090700b19480001e009000c9
:1049b400808f50009f023a002e009000e20f5000ba
:1049c4007f023a006c004700d003b00021002000b1
:1049d400b30f070080407800a09f210001487800b1
:1049e4006c004700f003b00021002000ac0f07006a
:1049f40080407800909f2100014878006c004700b7
:104a04001004b00041002000a50f0700000078004a
:104a1400e0cf88006c0047005004b0002100200063
:104a24009f0f070080407800609f210001487800b4
:104a34006c0047007004b00021002000980f0700ac
:104a440080407800709f2100014878006c00470086
:104a54009004b00021002000910f070080407800ee
:104a6400809f210001487800509521001040780073
:104a74008080fb00909f2100104078000000fb0024
:104a8400808f50001d0032000000eb00d0ca880067
:104a9400100020000100200010cb880021cb8800ea
:104aa400909f2100104078008040780050952100ac
:104ab400014878005095210013002000000178007f
:104ac400900f2000010020008e190700a0952100fe
:104ad4002300200000017800a00f20000100200026
:104ae4008819070020962100430020000001780067
:104af400c00f20000100200082190700b1ca800005
:104b0400e0cf8000808f50002f0232000000eb00c5
:104b1400e0ca88006000b80030cb880041cb880030
:104b2400e0cf8000b0ca88006095210023002000f7
:104b340000017800601020000100200071190700b6
:104b4400609621004300200000017800001020003e
:104b5400010020006b190700c095210023002000ec
:104b640000017800401020000100200065190700b2
:104b7400300237006c004700620020005116290003
:104b840041f107000000e000110232002e00900005
:104b9400e80f50009a003a00b19480001e00900083
:104ba400808f500096003a008828ef008a28ef0092
:104bb4004d68ef008f68ef00b19480006c004700ef
:104bc4000101780080007800c06c21000ef107001c
:104bd40010c0b30074e8b700f9968000d89580003f
:104be4009796800076958000359680001495800015
:104bf4008fc8bf008081fb004ac8bf000081fb0052
:104c0400b1448000002120000e004000891f78007c
:104c1400881f7800871f7800861f7800851f78001a
:104c2400841f7800831f7800821f7800811f78001a
:104c3400c1162900811f780022f10700f48757006c
:104c4400002120000e004000f10320009c0b07000f
:104c54006c004700f003b00021002000100f070093
:104c640080407800a09f2100014878006c00470034
:104c74001004b00021002000090f070080407800d4
:104c8400909f2100014878006c0047003004b00078
:104c940041002000020f070000007800e0cf8800e8
:104ca4006c0047007004b00021002000fc0e0700d7
:104cb40080407800609f2100014878006c00470024
:104cc4009004b00021002000f50e07008040780019
:104cd400709f2100014878006c004700b004b000c8
:104ce40021002000ee0e070080407800809f210004
:104cf4000148780050952100104078008080fb0026
:104d0400909f2100104078000000fb00808f50002d
:104d14001d0032000000eb00d0ca88001000200003
:104d24000100200010cb880021cb8800909f210037
:104d340010407800804078005095210001487800a8
:104d4400509521001300200000017800900f2000ee
:104d540001002000eb180700a0952100230020008b
:104d640000017800a00f200001002000e5180700d2
:104d7400209621004300200000017800c00f20008d
:104d840001002000df180700b1ca8000e0cf8000d6
:104d9400808f5000a70132000000eb00e0ca8800b9
:104da4006000b80030cb880041cb8800e0cf8000a1
:104db400b0ca88006095210023002000000178001b
:104dc4006010200001002000ce180700609621002a
:104dd40043002000000178000010200001002000a2
:104de400c8180700c09521002300200000017800a6
:104df4004010200001002000c21807008d01370078
:104e04006c00470062002000111b29009ef007007f
:104e14000000e00011003a00440a0700830a07007a
:104e2400c20a070080d123000000010061002000b5
:104e3400801b2900220b0700f11b290010c0b300be
:104e4400f6160700011d290020c0b300f316070061
:104e540010c0b300ac1d0700760137006c0047009a
:104e640062002000111e290087f007000000e00006
:104e74000d003a002d0a070061002000801e290061
:104e84000f0b0700f11e290010c0b300e316070042
:104e9400011d290020c0b300e016070010c0b300b4
:104ea400991d0700630137006c0047006200200071
:104eb4000120290074f007000000e0000d003a0012
:104ec4005a0a07006100200070202900fc0a07002c
:104ed400e120290010c0b300d0160700011d2900ed
:104ee40020c0b300cd16070010c0b300861d070014
:104ef400500137006c00470062002000f1212900b6
:104f040061f007000000e0000d003a00870a070086
:104f14006100200060222900e90a0700d12229004b
:104f240010c0b300bd160700011d290020c0b30046
:104f3400ba16070010c0b300731d07003d01370007
:104f44006c00470062002000e12329004ef00700b6
:104f54000000e00011003a0010c0b3007ae8b70086
:104f6400a08720001300200000017800100f20000b
:104f7400010020006318070061002000502429006c
:104f8400cf0a0700c124290010c0b300a3160700ec
:104f940010c0b3005c1d0700260137006c004700f9
:104fa40062002000d125290037f007000000e0004e
:104fb40011003a0020c0b3007ae8b700a0872000af
:104fc4001300200000017800100f200001002000d1
:104fd4004c1807006100200040262900b80a070089
:104fe400b126290010c0b3008c16070010c0b3000e
:104ff400451d07000f0137006c00470062002000c8
:10500400c127290020f007000000e00003003a0057
:1050140000dd230000000100060137006c0047009a
:10502400620020003128290017f007000000e0008a
:1050340003003a0010c0b300c0e8b700fd00370019
:105044006c00470062002000a12829000ef0070030
:105054000000e00003003a0030c0b300c0e8b7002d
:10506400f40037006c004700620020001129290079
:1050740005f007000000e00005003a00c304070043
:1050840061002000802929008d0a0700e90037000b
:105094006c00470032002000f1292900faef0700d4
:1050a4000000e0001e003a00002020000e00400036
:1050b4000201200001022000ecef07006c00470011
:1050c40063004000032020008e8141003200200054
:1050d4008000780003007800cbef07000020200058
:1050e4000e0040007eef07000040780034e8b7006f
:1050f40040832000130020000001780010002000ed
:1051040001002000ff17070010c0b3004de8b700ee
:1051140061002000302a2900690a0700c500370011
:105124006c00470032002000a12a2900d6ef0700b6
:105134000000e00010003a00fe489000a0c2b30056
:1051440080cf5000a4003a00ae509000a0c2b3003b
:1051540080cf5000a2003a00ee509000a0c2b300ed
:1051640080cf5000a0003a006c0047009e009000e1
:10517400d20a0700af0037006c004700620020002d
:10518400e12a2900c0ef07000000e00008003a000f
:10519400ae509000a0c2b30080cf500094003a00fb
:1051a4006c0047009e009000070b0700a100370029
:1051b4006c00470052002000512b2900b2ef070079
:1051c4000000e00008003a009e509000a0c2b30026
:1051d40080cf500088003a006c0047009e00900089
:1051e400120b0700930037006c00470052002000a8
:1051f400b12b2900a4ef07000000e00008003a00ea
:105204009e509000a0c2b30080cf50007c003a00b2
:105214006c0047009e009000280b070085003700b3
:105224006c00470032002000112c290096ef070083
:105234000000e0001e003a001e009000e90f50003c
:105244001b003a00fe489000a0c2b30080cf50007b
:1052540078003a00ae509000a0c2b30080cf500056
:1052640069003a00002020000e00400002012000e6
:10527400010220007def07006c004700640040003d
:10528400032020008e81410022002000800078004d
:10529400030078005cef0700002020000e004000af
:1052a4000fef07000000e9002c0b07006100370036
:1052b4006c00470062002000512c290072ef0700a7
:1052c4000000e00006003a00ae509000a0c2b30017
:1052d40080cf50004e003a00560b070055003700af
:1052e4006c00470052002000c12c290066ef070023
:1052f4000000e00006003a009e509000a0c2b300f7
:1053040080cf500044003a00680b07004900370082
:105314006c00470052002000212d29005aef07009d
:105324000000e00006003a009e509000a0c2b300c6
:1053340080cf50003a003a00780b07003d00370058
:105344006c00470052002000812d29004eef070019
:105354000000e00006003a009e509000a0c2b30096
:1053640080cf500030003a008a0b0700310037002c
:105374006c00470052002000e12d290042ef070095
:105384000000e00006003a009e509000a0c2b30066
:1053940080cf500026003a00a80b070025003700f4
:1053a40061002000402e2900c509070021003700b4
:1053b40061002000b02e2900c10907001d0037003c
:1053c400000000001b003700000000001900370037
:1053d400000000001700370000000000150037002f
:1053e4000000000013003700000000001100370027
:1053f400000000000f003700000000000d0037001f
:10540400000000000b003700000000000900370016
:10541400000000000700370000000000050037000e
:105424000000000003003700000000000100370006
:10543400000000000000eb00100798009e009000a0
:10544400b1438800b04380000040780061406000b0
:105454000080fb006100600000004000318f80008c
:105464000110a10001007000308f8800421f20004d
:1054740001022000402e2100fcee07006c004700d2
:10548400421f200001022000f8ee07004f04be0076
:105494000080fa00000006000000fa0040832000ab
:1054a40011002000120020000300200091170700c3
:1054b4002000200001002000ac000700a0282100eb
:1054c400210020002200200003002000891707008b
:1054d40000292100210020004200200003002000b8
:1054e40084170700602921002100200062002000a9
:1054f400030020007f170700c0282100410020007e
:1055040082002000030020007a17070020292100d0
:1055140041002000c200200003002000751707008e
:105524008029210041002000020120000300200006
:1055340070170700402a210041002000420120008a
:10554400030020006b170700002b210041002000fe
:10555400820120000300200066170700c02b2100f1
:1055640041002000c2012000030020006117070051
:10557400002a210021002000320220000300200024
:105584005c170700c02a21002100200052022000dd
:105594000300200057170700802b21002100200062
:1055a400720220000300200052170700402c210043
:1055b40021002000f2022000030020004d17070004
:1055c400002d2100210020001203200003002000f0
:1055d40048170700c02d21002100200032032000bd
:1055e4000300200043170700202a21002100200087
:1055f40092022000030020003e170700e02a210049
:1056040021002000b2022000030020003917070007
:10561400a02b210021002000d20220000300200042
:1056240034170700602c21002100200052032000c1
:10563400030020002f170700202d21002100200047
:1056440072032000030020002a170700e02d210028
:1056540021002000920320000300200025170700ea
:10566400c0292100110020000202200003002000b4
:1056740020170700802a21001100200012022000b8
:10568400030020001b170700402b210011002000fd
:10569400220220000300200016170700a087200024
:1056a40011002000120f2000030020001117070032
:1056b4004095210011002000220f2000030020004b
:1056c4000c1707008095210021002000320f2000d4
:1056d4000300200007170700e09521004100200087
:1056e400520f20000300200002170700a09521009c
:1056f40021002000a20f200003002000fd16070057
:105704002096210041002000c20f20000300200049
:10571400f81607005095210011002000920f200078
:1057240003002000f3160700c0952100210020008b
:105734004210200003002000ee16070060962100ae
:10574400410020000210200003002000e916070099
