:020000040000fa
:080000000001040000000000f3
:020000040000fa
:100200002fe7200000792200000188000000000094
:100210000c000700602a24000100200011000700e4
:10022000000020000000e000020032000000020098
:1002300000000000c0130200000000000040da00cf
:100240000000fe004440a900204420000000e0001f
:100250000300320000002000a00188004440a800f4
:100260000000060091018800800078000000eb008b
:1002700015003700e280400032a0b4009101ba00be
:10028000e280400032a0b4009102ba00e280400057
:1002900032a0b4000002eb00472bde00f507b200ed
:1002a000602ce10004003a000059eb008301e900f2
:1002b000fdff3e00040037006128e100010032002c
:1002c0000082eb00040007001101ba000200e00008
:1002d000e8ff3a00000006003159ba008301e90046
:1002e0000c0032002159ba008301e90008003200f5
:1002f0000400e00003003a00e280400032a0b400b5
:10030000f5ff370011d9ba008301e900faff3a007e
:100310008100e800e180400032a0b4000000060047
:10032000b0010400000000008001eb000200370073
:1003300061f079008301e800828f5100fcff3a00f0
:10034000000006008001eb00020037008171780098
:100350008301e800828f5100fcff3a000000060094
:10036000881f780002047800efff070008004000b3
:100370004f047800000006000000fa00881f780093
:10038000000478003fb99700ea81570080007800a8
:10039000001b2000c3000700800078000000e00080
:1003a000020035000040eb0000f478000100780006
:1003b0004f0478000080fa00000006000002780078
:1003c0000000eb000b0037009441780091cf510002
:1003d000030032000080eb00090039001000050026
:1003e0000000e8000304e000040032000402e8001a
:1003f0008100e800820f5000f3ff3a000000eb009c
:1004000000000600ec874700889fbe008a9fbe0060
:100410008c9fbe008e1f7800f0b79f0081bf9f00a9
:100420008204780000047800010037000804e80026
:10043000184778000e00fb00530107000000e000a1
:10044000faff3a00d0c2b300804f570005003200d7
:1004500000c0e900804f57000200320000477800da
:10046000010037000804e8000900e00045003500fd
:10047000e18f54004300320040022000808f54007e
:1004800040003c000900e0000e003400f08f5400f2
:100490001a003a0000c3b300984f100016003a004b
:1004a0009840900080c7b30080cf50000300320016
:1004b00080c5b30080cf50000f003a000884e800e8
:1004c0000e003700a900200000c3b300984f1000b1
:1004d0000a003a009840900080c7b30080cf5000d7
:1004e000040032008900200080c5b30080cf500096
:1004f00002003a000884e80009012000080578009d
:1005000000c3b300010037000a05e8009a4f10004d
:10051000fdff32008a0578006066b8000e003700e3
:10052000d0e0200000425200c4ef9f006149b900b2
:100530000c00be00de0407004fea97000401fb0038
:10054000cf91de008b05e800ccb79f00ddb79f00a0
:1005500000064100818649001b00fb0012010700d4
:100560008000780009017800d0e020001501070024
:10057000000278000000e000e9ff3a008b0f540011
:1005800006003a000fb897000000e0002900320092
:10059000ffb0970001087800260037008a805500d8
:1005a00080de200060c07c000000fb000080500066
:1005b000160033004240a9000f003c004fe99700ad
:1005c0000200fb00cf80de000000560081805e004c
:1005d000800f5600818f5e00070039006149b90025
:1005e000b90407004fb19700dfb19700820f5000a8
:1005f000838f58000500320020022000807388009d
:100600000086eb008086eb0005003700d0c2b30007
:10061000804f570002003a0060061600e0861e0078
:100620008fb997000300e000030032008b097800c7
:10063000010037006066b8000c00be004f0778006c
:100640004f06be004f05be004f04be00cf00b100f4
:1006500000000600808f50000e00310082814000b3
:10066000830f50000b003100020240008000eb00bd
:1006700002003700436278008100e800828f50005a
:10068000fcff3a000000060061f079008301e800f9
:10069000010037008001eb00828f5100faff3a0021
:1006a000000006006200fa00889fbe008a9fbe001c
:1006b0000004be00020578008300780060f92f0076
:1006c0000f004000cf00070088979f0099979f0078
:1006d0000000eb00a09f9f009a4578000b80fb0074
:1006e0000000ea00cf04de0050c2b30080cf550006
:1006f0000200320009047800010037000904e90013
:100700000800e0000b0034001f90970008017800fb
:100710008a0078008f9197000300010090979f0056
:100720000000e000930032002f9897000000440082
:10073000a09f9f000905450050c2b30080cf55001f
:10074000040032000b04e000e3ff3a002f9897000a
:10075000890037000000eb00809f9f00f0979f000a
:10076000e0979f00d0979f00c0979f00b0979f0091
:10077000c09f9f000900370000e620000080500065
:100780000000400041e52000e10078004f9897000c
:1007900001007000c09f9f000a05e8001a4478001d
:1007a0008800fb0000e620009b0007008000780026
:1007b0000000e000f0ff3a00a0c2b300804f5400f8
:1007c0000e003a00bf8897000180e900b08f9f00bb
:1007d00010007800b09f9f000000e00005003d0081
:1007e0000000ea00b09f9f004f9897000020a000f3
:1007f000c09f9f000a05e80010003700b19f9f00ce
:1008000003fd2f00f4ff2700080037003f989700f2
:10081000840f5000040032006a00b900000041005b
:1008200003004000b09f9f000a05e8001a01fb008a
:1008300003004100e90f5000f4ff3600e0c2b300ae
:100840009a4f1000040032000080eb00909f9f0040
:100850008a0478001c0037008a04e800a0c2b300b4
:10086000994f100007003a00bf8897000180e90007
:10087000b08f9f0010007800909f9f008a84e8004e
:10088000110037000000eb00909f9f0003fd2f0038
:10089000f4ff2700080037001f989700840f5000ce
:1008a000040032006a00b90000004100030040006b
:1008b000909f9f008904e8001901fb00030041009c
:1008c000e90f5000f4ff3600194478008800fb005f
:1008d00060e62000500007000000e00002003a003f
:1008e00000447800010037008904e800a87f9f00d9
:1008f00080c6b300804f540004003a00994f1400a2
:100900000a003a006640500006003700c0c6b30037
:10091000804f540005003a00994f140003003a003c
:1009200065404000a07f9f008904e8000905e800b9
:10093000cbfb2f008f8545001901fb0060f92f00cc
:100940000f0040000084e8008b01780080007800f0
:1009500008007800390007000000e00005003a00b8
:100960008b00780008007800770107000000e000a5
:1009700059ff3d000080eb004f05be004f04be0054
:100980000080fa00000006006900e1000400350064
:100990006d00e100030034000002b10001003200ec
:1009a0000000050010000500800078001104b1006f
:1009b000030035009101b10001003c000050a0008f
:1009c000000006008001eb00040037008301e8000e
:1009d00090cf1000040032000000e800828f510028
:1009e000faff3a000000eb00000006007073800080
:1009f0000000e000010032000000010000e72000dc
:100a0000000006000200fa00f1bf9f000108780014
:100a10000080fa0000000600040037000204e00035
:100a200001003a00000005000000e80010417800d5
:100a3000814f5100f9ff3a0000000600889fbe0078
:100a40008a1f780000047800010278008244780050
:100a500003057800e0c6b300804f5100d200320099
:100a600015003c006b405000804f510024003200c4
:100a70000a003c0070405000804f51000f013200ce
:100a800065404000804f51007400320050c2b300f6
:100a9000804f510020013a001c01370040c6b300ce
:100aa000804f51001b00320065404000804f5100d4
:100ab00019013a001700370030c7b300804f5100ca
:100ac000fe00320007003c0064405000804f51009f
:100ad000620032000040e800804f51000e013a00f1
:100ae000e700370050c7b300804f51005b00320071
:100af00063404000804f510007013a005700370023
:100b00009180e900010a78007800900091717800e6
:100b100007013700a8609000c0c6b30080cf500026
:100b20000a003a009400780064805000000a7800bf
:100b30001000be004f89de00cf91de000002be0033
:100b400002037800820378001300370010c7b30057
:100b500080cf500003003200a0c6b30080cf500009
:100b600006003a009400780068805000000a78007f
:100b70003002be002003be00070037001480e900e9
:100b8000000a78001000780000027800cfa2de0092
:100b90000503780086037800049cbe000694be001e
:100ba000a860900080c6b30080cf50000e003200d5
:100bb00020c6b30080cf500005003a000400fb00bf
:100bc000cf80de0001017800820178000a00370042
:100bd00040c7b30080cf50000300320066404000a1
:100be00080cf500006003a0004007800cf80de007d
:100bf0000101780082017800009cbe000294be00d2
:100c00003800be002801be00e00f5000e08f580001
:100c1000e00f5900e08f590003003d00780090007c
:100c2000d1c2b3000a003700081090000018a300da
:100c30000300320078009000b1c2b3000400370016
:100c40000008a300530032007800900001c2b300f6
:100c5000017578000000e8004d003700a8609000a2
:100c6000c0c6b30080cf500006003a009400780060
:100c700064805000000a78001002be006033b800a3
:100c80001300370010c7b30080cf500003003200bc
:100c9000a0c6b30080cf500006003a009400780050
:100ca00068805000000a78003002be002003be00b9
:100cb000070037001480e900000a7800100078006f
:100cc0000002780005002000060020000700200038
:100cd000049cbe000694be00a860900080c6b300cd
:100ce00080cf50000e00320020c6b30080cf5000ed
:100cf00005003a000480fb000100200002002000f3
:100d0000030020000a00370040c7b30080cf500026
:100d1000030032006640400080cf500006003a00d9
:100d200004007800010020000200200003002000e1
:100d3000009cbe000294be00081090000038a30082
:100d4000140032003800be002801be00e00f500041
:100d5000e08f5800e00f5900e08f59000d0032007d
:100d600080c7b30080cf54000300320080c5b300b9
:100d700080cf540007003a007800900001c3b30010
:100d8000017578008000e80009f578000080e8002f
:100d900070049800780090000000450060049800fe
:100da0008940780042003700a8609000c0c6b300b8
:100db00080cf5000250032000a003c006440500003
:100dc00080cf50002800320000c0e80080cf5000e3
:100dd000140032006840500080cf500022003a00da
:100de0000a00370040c7b30080cf50001e00320019
:100df0006640400080cf50001b0032006940500028
:100e000080cf500018003a00060037001480e90037
:100e1000000a780010007800485c900008487800cc
:100e2000450037001480e900000a780010027800bd
:100e300068089000cf80de00010178008201780010
:100e4000009abe000292be003b0037001480e90009
:100e5000000a78001001780068089000cf80de005a
:100e60000089be00340037001480e900000a7800d1
:100e700010007800680c9000080878002e003700f9
:100e80001180e9008008780010007800cf80de0033
:100e90000101780082017800009cbe000294be002f
:100ea00078009000000045006004980081c7b300fe
:100eb00008007800ee0007001f0037001480e900ea
:100ec000000a78001000780060049800580990002b
:100ed0000200e00002003d006e020700090037003a
:100ee0008000eb00b7fe0700800078000000e00003
:100ef00003003200680090000080500001003700bd
:100f000058089000100c98000b00370078009000f3
:100f100002757800060037007800900080004500d8
:100f20000904e00001003a0059c2b3008948780082
:100f30000000e800700498000000eb004f05780006
:100f40004f04be00000006000400fa00889fbe00a7
:100f50008a9fbe008c1f780000047800010678008c
:100f600070089000f8009000010050008808900080
:100f7000010050009808900001005000a80890005f
:100f800001005000b808900001005000c80890000f
:100f9000810550000002220090bf9f000003230043
:100fa000a0bf9f00081090000028a30018003a007e
:100fb0000b00e000160034008b047800090578006f
:100fc000e28f5400020036002a00200002003700a1
:100fd0000900e0000b00340058009000c8019000a8
:100fe0000a017800ee8057000300010050049800c9
:100ff0000000e00096003200680890000000450004
:10100000600c98008a8454004240a900ebff3c0029
:10101000780190000200e0000b00340058009000be
:10102000c80190008c007800030001005004980073
:101030000000e0008600320068089000f800900090
:1010400001004000600c9800880c90000900e0004e
:101050001500340009057800e28f540002003600c4
:101060002a002000020037000900e0000b003400d5
:1010700058009000c80190000a017800ec805700e9
:1010800003000100500498000000e00070003200ee
:101090006808900000004500600c98008a845400a5
:1010a0004240a900ebff3c00180990000200e0005c
:1010b0000b003400e800900058009000c801900038
:1010c00003000100500498000000e00060003200be
:1010d000680890009808900001004000600c98009b
:1010e000a80c90000900e000150034000905780004
:1010f000e28f5400020036002a0020000200370070
:101100000900e0000b00340058009000c801900076
:101110000a017800ec805700030001005004980099
:101120000000e0004a00320068089000000045001e
:10113000600c98008a8454004240a900ebff3c00f8
:10114000380990000200e0000d003400e800900033
:10115000180890008080400058009000c80190005e
:1011600003000100500498000000e0003800320045
:1011700068089000b808900001004000600c9800da
:10118000c80c90000900e000150034000905780043
:10119000e28f5400020036002a00200002003700cf
:1011a0000900e0000b00340058009000c8019000d6
:1011b0000a017800ec8057000300010050049800f9
:1011c0000000e000220032006808900000004500a6
:1011d000600c98008a8454004240a900ebff3c0058
:1011e000081090000028a3001b0032000b00e00054
:1011f000190034008b04780009057800e28f540050
:10120000020036002a002000020037000900e0003a
:101210000b00340058009000c80190000a017800cb
:10122000ee80570003000100500498000000e00029
:10123000070032006808900000004500600c98002c
:101240008a8454004240a90003003400eaff3700ba
:101250000080eb00010037000000eb004f06780033
:101260004f05be004f04be000080fa0000000600db
:101270002f03b000889fbe008a9fbe008c9fbe00d7
:101280008e1f78000007780030e42000c0b79f0070
:1012900080c5b30080cf50000800320022e3200058
:1012a000c2b79f007740400080cf500003003a0053
:1012b00083002000b3b79f000a00370080c7b30047
:1012c00080cf500005003200a4002000b4b79f007a
:1012d00080c5b30080cf500002003a000501200015
:1012e000b5b79f003e04be002e05be0040c6b30049
:1012f00080cf5000030032006540400080cf500096
:101300000b003a00e00f5400e08f5c00e00f5d003e
:10131000e08f5d0006003d006000b8006011b8007d
:1013200008045000898458000a0559008b8559002b
:10133000bfb39700e88f530003003200f08f5300d3
:1013400045003a0002003700360020000100370057
:1013500046002000e00f5400e08f5c00e00f5d00cd
:10136000e08f5d0005003a005e08900081012000da
:10137000a1b79f000000e000080032003fb19700d5
:101380000200e90008006000cfb1970063407800d8
:1013900090df9f0074012000a4b79f0086027800b0
:1013a0008502e900050033008b05d1000a85d300d2
:1013b0008984d3000884d300f9ff3700089fbe005a
:1013c0000a97be00afb397000700e90021fc2f0089
:1013d0008f804000008240003fb197008202e90008
:1013e00012003700afb397008703e900a7b79f004b
:1013f00000806200cfb09700615278003e00be00ce
:101400002e01be00860378008703e9000500330043
:101410008381d1000281d3008180d3000080d3007a
:10142000f9ff3700009fbe000297be003e00be00dd
:101430002e01be00e00f5000e08f5800e00f590071
:10144000e08f5900d6003400afb397000700e000ea
:10145000e4ff3c00d2003700ae60900080c6b300cd
:1014600080cf50000b00320006003c000104e00079
:10147000080032006640500080cf500073003a00f0
:1014800004003700c0c6b30080cf50006f003a00a0
:1014900031003700080178000800e00005003a003c
:1014a0005e08900081012000a1b79f000000e000cd
:1014b00009003200bfb19700110009000381d80074
:1014c0008000fd004fb297006440780090df9f00dd
:1014d00075012000a5b79f00bfb397001100090058
:1014e0000781d80080017800afb097000100e900c3
:1014f00022fc2f000f014100000241000c003700c8
:10150000bfb29700110009008501d80000017800e2
:10151000afb397008703e900a7b79f000590b90014
:1015200000805100cfb097006152780082017800ae
:101530000300e000030034002fb197000200e00038
:10154000efff3c0003007800cf80de00010178004f
:10155000820178003a0037000806be00e00f540010
:10156000e08f5c0005003a005e08900083012000d7
:10157000a3b79f000000e000090032003fb29700cf
:101580006121b9000c00be00df000700cfb2970058
:101590006540780090df9f0077012000a7b79f008b
:1015a0003fb297006121b9000c00be00c6000700e1
:1015b0000006be00afb297000500e90027fc2f002f
:1015c0008f8343008083430097b79f00110037004b
:1015d0003fb197006114b9000801be000c00be00c5
:1015e000cc0007000005be00afb197008301e90001
:1015f000a3b79f000801be00ad0007000000560021
:101600001fb29700cfb297006552780094b79f0041
:101610000a06be00e00f5600e08f5e0003003400b3
:10162000afb397000700e000e9ff3c004feade009f
:10163000cfa2de000c00be00040178008401780017
:10164000009fbe000297be0055003700e00f540017
:10165000e08f5c00e00f5d00e08f5d0005003a0068
:101660005e08900081012000a1b79f000000e0000b
:101670000d0032003fb1970002027800cfa2de00d9
:1016800005037800860378000800be000a01be004a
:10169000300107004fb297006440780090df9f0050
:1016a00075012000a5b79f003fb1970002027800a6
:1016b000cfa2de0005037800860378000800be0094
:1016c0000a01be001c010700009fbe000297be0079
:1016d000afb197000300e90024fc2f000f02420085
:1016e0000006420020003700bfb2970005047800d2
:1016f000cfc4de00090578008a0578000802be0024
:101700000a03be005fa89700efa897007fa9970083
:101710008fb1970013010700d0b79f00e1b79f007a
:10172000f2b79f0083bf9f00afb397008703e90024
:10173000a7b79f000802be000a03be008f01070082
:101740005faa970000005200cfb29700655678005c
:101750005fb09700efb097007fb197008fb9970007
:10176000009fbe000297be003e00be002e01be00dc
:10177000d0af9f00e1af9f00f2af9f0083b79f0003
:10178000e00f5000e08f5800e00f5900e08f590043
:1017900003003400afb097000100e000d2ff3c002e
:1017a0003fb19700e80f510013003a000e1090006f
:1017b0000038a30010003200afb19700f78f51003e
:1017c00006003e0024fc2f000f024200830042006e
:1017d00000c3b300914f100007003200afb2970072
:1017e0008502e900a5b79f0000c3b30027fc2f00c6
:1017f0008f83430080f37a00afb1970078811100a6
:10180000120f98006e00900024fc2f000f0242007f
:1018100083004200c4fa07001e0990005e08900091
:10182000800f510006003d0002005000000f98009c
:101830000e1090000040a100001798000f00370024
:101840000000e0000d003d000e10900074006000ec
:10185000f00f500009003a007e089000fe00900052
:10186000010050008e08900001005000020050005e
:101870004240a90001003400000f98004f07780093
:101880004f06be004f05be004f04be002f03b1003f
:101890000000060080007800010037000000e8002a
:1018a0001004e000fdff3a000100500000000600b7
:1018b000020ab900001bb9000200b8008100420012
:1018c00081004300000006006022b80006022000ec
:1018d0000000d0008180d2000482d2008582d20034
:1018e0000000a0000202520083825a00030031006f
:1018f0000202420083824a000000a1000603e900c0
:10190000f3ff3a0000000600efff07000400be00ee
:1019100000000600839f68000100e00002003d0017
:1019200060001000e08018000300e00002003d00ad
:1019300060011100e0811900e3ff07004f00e000a3
:1019400002003b0060001000e0801800000006006c
:10195000881f7800000478005001be004000be00df
:101960000400400085804800060149008781490045
:10197000009cbe000294be000400e1000588e10066
:101980000690e1000798e100020031006800440081
:101990001008e8004f04780000000600f4874700b4
:1019a000889fbe008a9fbe008c9fbe008e1f78005d
:1019b0000205be000004be00d4b79f00e5b79f003b
:1019c000f6b79f0087bf9f000000eb00c0b79f00e5
:1019d000b0b79f00a0b79f0090b79f0080b79f004f
:1019e0000d042000bfb097004fb0970000014000e9
:1019f0000000e0000f003d004f08de000000710015
:101a0000c0b79f009e00070001003d0012002000ab
:101a1000a100070001003d0012002000a600070001
:101a2000b1000700b60007000f004000c8ff070024
:101a3000220037004f08de0000067100ccb79f007f
:101a40008f00070001003d001200200092000700f7
:101a500001003d001200200097000700a2000700cf
:101a60000fb297009fb297002fb39700bfb39700b4
:101a7000a90007000000520081805a0002015b00ab
:101a800083815b0080b79f0091b79f00a2b79f0042
:101a9000b3b79f000007eb009f0007000020e100a4
:101aa00001a8e10002b0e10003b8e100010031004b
:101ab0001e0020000e005600c0b79f004fb29700d6
:101ac0000400e000070035001000200001002000a5
:101ad0006011b80008047000898470000a05710064
:101ae0008b8571008d06e900beff3a000400e0001e
:101af00003003d00820007000f00400094ff070034
:101b00004fa897000000e00004003a000fb49700cf
:101b10009fb497002fb59700bfb5970094000700ba
:101b20004f0778004f06be004f05be004f04be00b1
:101b30004f01b10000000600881f78001800200047
:101b4000881f780095ff07008f87e9004f04780011
:101b500000000600801feb0090ff07008f87e90060
:101b600000000600889fbe008a9fbe008c1f780080
:101b70006e00070007003d0073000700e00f5b00e8
:101b8000e08f5b0007003d00320007000006eb001d
:101b9000040037003400070002003d002a0007005f
:101ba0001c00200072000700e3ff07000203be00d4
:101bb0000002be000c00e00001003200220007001d
:101bc0000400be000601be004f0678004f05be00af
:101bd0004f04be0000000600889fbe008a9fbe0022
:101be0008c1f78005100070005003d0056000700db
:101bf000e00f5b00e08f5b0006003d000400370053
:101c00001900070003003d006000b8006011b80033
:101c10001000070056000700ceff07000203be00b9
:101c20000002be000c00e0000100320006000700c8
:101c30000400be000601be004f0678004f05be003e
:101c40004f04be00000006006000b8006011b8003c
:101c50000000370004025000858258000603590036
:101c600087835900000006000006eb00e00f5200d9
:101c7000e08f5a00e00f5b00e08f5b000000060081
:101c80000180400090b79f000001eb008fb09700eb
:101c90000100e000000006000200700090b79f0005
:101ca0000180400080b79f000001eb00ffa8970073
:101cb0000100e000000006000200700080b79f00f5
:101cc000018040006faa9700cf20de000100700065
:101cd000f0af9f0004024200250007004f18de000d
:101ce0000002720000000600e4af9f0008044400f8
:101cf00089844c000a054d008b854d0000000600cc
:101d00003fb29700cfb297005fb39700efb3970051
:101d100000fe2f00000006003fb09700cfb09700f4
:101d20005fb19700efb19700000006000205be000a
:101d30000004be00e00f5000e08f5800e00f590093
:101d4000e08f5900000006006000b8006011b80084
:101d500008045000898458000a0559008b855900f1
:101d60001c002000e00f5200e08f5a000000060027
:101d70000800be000a01be0000000600889fbe00e9
:101d80008a9fbe008c1f78000205be000004be00c2
:101d90000006eb00e00f5000e08f5800e00f590004
:101da000e08f590007003d006000b8006011b800e6
:101db00008045000898458000a0559008b85590091
:101dc0001c002000e00f5200e08f5a00e00f5b0083
:101dd000e08f5b0002003d000f0007000c00a20036
:101de0000800be000a01be00120007000203be0088
:101df0000002be000c00e0000100320006000700f7
:101e00000400be000601be004f0678004f05be006c
:101e10004f04be00000006006000b8006011b8006a
:101e20000402500085825800060359008783590038
:101e300000000600889fbe008a9fbe008c9fbe00e7
:101e40000404b8000506b8008904460060854e0009
:101e50000606b8000a054600e0854e000706b800f1
:101e60008b054600040eb800890446000a854e0022
:101e7000e0854d00050eb8000a0546008b854e0032
:101e8000060eb8008b0546000416b8000a05460089
:101e90008b854e000516b8008b054600041eb80061
:101ea0008b0546000800be000a01be004f06be00ba
:0c1eb0004f05be004f04be0000000600fd
:020000040000fa
:0200000401f009
:04000000e1ff00001c
:020000040000fa
:0200000401f009
:04000400ff7f00007a
:020000040000fa
:0200000401f009
:04000800fcff0000f9
:020000040000fa
:0200000401f009
:04001400ffff0000ea
:020000040000fa
:10000800f4450000f4450000f4450000f445000004
:10001800f4450000f4450000f4450000f4450000f4
:1000280018200000f4450000f4450000b21d00004f
:10003800f4450000f4450000f4450000f4450000d4
:10004800f44500001c1e0000061f0000fe1f0000f3
:10005800f4450000f4450000f4450000f4450000b4
:1000680034200000f4450000f4450000f445000089
:10007800f4450000f4450000f4450000502000005d
:10008800461f0000be1f0000f4450000f4450000b4
:10009800f4450000f4450000f4450000f445000074
:1000a800f4450000f4450000f4450000f445000064
:1000b8006e2000008a200000f4450000f44500008e
:1000c800f4450000f4450000f4450000f445000044
:1000d800f4450000f4450000f4450000f445000034
:1000e800f4450000f4450000f4450000f445000024
:0800f800f4450000f44500008e
:020000040000fa
:10010800f4450000f4450000f4450000f445000003
:10011800f4450000f4450000f4450000f4450000f3
:1001280018200000f4450000f4450000b21d00004e
:10013800f4450000f4450000f4450000f4450000d3
:10014800f44500001c1e0000061f0000fe1f0000f2
:10015800f4450000f4450000f4450000f4450000b3
:1001680034200000f4450000f4450000f445000088
:10017800f4450000f4450000f4450000502000005c
:10018800461f0000be1f0000f4450000f4450000b3
:10019800f4450000f4450000f4450000f445000073
:1001a800f4450000f4450000f4450000f445000063
:1001b8006e2000008a200000f4450000f44500008d
:1001c800f4450000f4450000f4450000f445000043
:1001d800f4450000f4450000f4450000f445000033
:1001e800f4450000f4450000f4450000f445000023
:0801f800f4450000f44500008d
:020000040000fa
:101ebc0020420000494e0000204d00004f4e000013
:101ecc00495400004f520000494e000047200000ca
:101edc00200000002053000059530000544500001e
:101eec004d20000056450000523100002e300000fd
:101efc002e30000020000000696e000074650000a8
:101f0c00726e000065740000004100005445000032
:101f1c003000000041540000265700000020000053
:101f2c00523a00002534000075200000533a00009e
:101f3c002534000075200000002000004c3a000001
:101f4c002532000075200000463a0000257500007f
:101f5c0020000000415400002b510000504f0000a5
:101f6c00574400003d30000000530000494d000074
:101f7c002020000020000000202000002020000075
:101f8c0052450000534500005454000045440000e5
:101f9c00202000002020000000530000494d0000cc
:101fac00636800006b000000415400002b430000ec
:101fbc00504900004e3f000000530000494d000006
:101fcc005245000047000000415400002b43000024
:101fdc0052450000473f0000004300004f4e0000f8
:101fec005345000054000000415400002b510000e8
:101ffc0049460000474300004e5400003d300000ad
:10200c0000410000504e00005345000054000000f9
:10201c00415400002b51000049430000534700007d
:10202c00503d0000312c00002200000061690000ce
:10203c0072740000656c0000677000007273000021
:10204c002e6300006f6d0000220000005441000060
:10205c00544100002e4400004f4300004f4d00003f
:10206c004f2e0000494e000054450000524e000017
:10207c004554000022000000696e000074650000e9
:10208c00726e00006574000022000000616900009f
:10209c0072630000656c00006770000072730000d2
:1020ac002e7000007222000000620000736e0000af
:1020bc006c6e000065740000220000007368000064
:1020cc0077610000706900006e740000220000004f
:1020dc00737500006e7300007572000066220000bc
:1020ec00007300006877000061700000220000009f
:1020fc00686900002d6900006e74000065720000b4
:10210c006e65000074220000006500002d6900005f
:10211c0064650000617300002200000022000000d2
:10212c002c220000202200002c2200002022000083
:10213c00004400004e5300005345000054000000c2
:10214c00415400002b510000494400004e53000044
:10215c00495000003d310000004900004e4900008c
:10216c004f4b0000004c000043530000434f000055
:10217c004d000000254100004c4900005645000070
:10218c0024000000525300005400000025520000af
:10219c00535400004f4b000024000000205400005a
:1021ac00726900007073000020520000657300001b
:1021bc0065740000656400002020000000530000de
:1021cc004554000000250000534500005446000013
:1021dc006f7200006d6100007445000072720000a7
:1021ec006f720000240000002553000045540000cd
:1021fc004f4b0000240000004750000052530000d9
:10220c000025000047500000525300002a00000037
:10221c0025300000346c0000640000002530000004
:10222c0034750000002a000000200000205300003c
:10223c007461000074750000733a000020500000b7
:10224c00415300005320000020000000202000001b
:10225c005374000061740000757300003a20000094
:10226c0046410000494c00002020000000200000e6
:10227c0020200000202000004149000052540000a2
:10228c00454c000020200000202000002000000011
:10229c002020000020540000415400004120000088
:1022ac00444f0000434f00004d4f00002020000021
:1022bc000020000020200000202000002049000009
:1022cc004445000041200000202000002020000098
:1022dc0020000000202000002020000020410000f1
:1022ec0049520000434500004c2000002020000013
:1022fc0020200000002000002020000020200000f2
:10230c0020420000534e00004c2000002020000012
:10231c0020200000200000002020000020200000d1
:10232c0020530000544f0000524500004420000090
:10233c00202000002020000000410000742b000031
:10234c005149000052450000474100005050000028
:10235c003d000000226100006972000074650000fd
:10236c006c67000070720000732e0000636f000039
:10237c006d22000000220000777700007722000019
:10238c000022000054410000544100002e44000083
:10239c004f4300004f4d00004f2e0000494e0000ef
:1023ac0054450000524e000045540000220000002d
:1023bc002261000069720000636500006c67000018
:1023cc0070720000732e000070720000220000007a
:1023dc00226900006d690000732f0000696e000017
:1023ec0074650000726e000065740000220000002d
:1023fc0022620000736e00006c6e000065740000b9
:10240c002200000022720000636f00006d6e00005d
:10241c006574000022000000227500006e69000047
:10242c006e6f000072220000004400006566000020
:10243c00617500006c740000732000004c6f00008c
:10244c006164000065640000210000002020000091
:10245c00524500005345000054540000494e000002
:10246c00472e00002e2e000020200000002000002f
:10247c002020000020530000494d000020430000a4
:10248c0068650000636b0000202000002000000045
:10249c000000000000000000000000000000000030
:1024ac00000000002a3000002a000000254f000028
:1024bc004b2a000000250000346c00007500000061
:1024cc00426100006c6100006e630000652000003a
:1024dc0043680000656300006b20000020200000b2
:1024ec000041000054440000000000006174000032
:1024fc002b63000073710000004300005351000077
:10250c00006100007400000025300000326c0000f7
:10251c007500000025300000346c000075000000d0
:10252c0025300000386c00006400000025300000ed
:10253c00327500002f25000030320000752f00008e
:10254c0025300000347500000025000030320000fa
:10255c00753a000025300000327500003a25000065
:10256c00303200007500000025300000317500008d
:10257c000025000030310000306c000075000000b8
:10258c00415400002b510000494f00005045000001
:10259c004e3d00002254000043500000222c00004d
:1025ac0022770000777700002e6c00006373000028
:1025bc0070610000796c00006f610000642e0000f7
:1025cc00696e0000222c0000383000000041000031
:1025dc00542b000051490000534500004e440000ac
:1025ec00005000004f530000542000002f47000003
:1025fc005053000044410000544100005765000056
:10260c00625300006572000076690000636500008b
:10261c002f4700005053000044610000746100001b
:10262c00536500007276000069630000652e00009f
:10263c00617300006d7800002f470000617200008c
:10264c006261000067650000446100007461000075
:10265c002048000054540000502f0000312e000080
:10266c0031000000486f0000737400003a20000035
:10267c0077770000772e00006c6300007370000009
:10268c00617900006c6f0000616400002e6900002d
:10269c006e000000436f00006e740000656e000059
:1026ac00742d000054790000706500003a20000081
:1026bc0061700000706c00006963000061740000c0
:1026cc00696f00006e2f0000782d000077770000f6
:1026dc00772d0000666f0000726d00002d750000f4
:1026ec00726c0000656e0000636f00006465000092
:1026fc0064000000436f00006e740000656e000003
:10270c00742d00004c6500006e67000074680000ba
:10271c003a00000025300000337500000070000006
:10272c00726f0000746f0000636f00006c3d00005e
:04273c000000000099
:020000040000fa
:102740000200fa0000702000103a88000000eb0040
:10275000000f7800010037001e0fe800703e2000d7
:102760009e0f1000fcff3c0060842700103a880098
:1027700070a52900103a88000080fa0000000600c9
:102780000000fa000f04070070b72000e1f52800f0
:102790000f0009003158780070b8200001f72800b8
:1027a0000f000900315878000001b10071b7200016
:1027b00010c0b300b015070071b8200020c0b300ee
:1027c000ad150700a0c0b300fb180700a0c0b30000
:1027d000f9180700a0c0b300f718070040b72000a1
:1027e00011002000720c200003002000521407008a
:1027f00020002000010020006a03070041b72000ec
:1028000091407800b0c5b30080cf50000c0032007a
:102810001b0807007008070080c0b30091ecb700e8
:1028200091ccbf000000fb00c3c7200021f82800a6
:102830000001780003007800bbf60700480037006d
:1028400000d320002100200002052000030020000a
:102850003914070020002000010020005103070068
:10286000e0d22000210020004205200003002000cb
:102870003114070020002000010020004903070058
:1028800060b1200011002000620920000300200038
:102890002914070020002000010020004103070048
:1028a00080cf200041002000a2092000030020006a
:1028b00021140700007d20000100200039030700db
:1028c000c0cf200041002000e209200003002000ca
:1028d00019140700007d20000100200031030700cb
:1028e00000d0200041002000220a20000300200028
:1028f00011140700007d20000100200029030700bb
:1029000040d0200041002000620a20000300200087
:1029100009140700007d20000100200021030700aa
:1029200000d1200041002000220b200003002000e5
:1029300001140700007d200001002000190307009a
:10294000f0d3200011002000c20520000300200069
:10295000f9130700200020000100200011030700e8
:1029600041002000b0f8280050040700d0c0b30098
:1029700044040700a0c0b3004204070080382100cf
:10298000010020000703070080382100010020001b
:10299000040307004100200000f928004304070059
:1029a000d0c0b30037040700a0c0b300350407004f
:1029b0008038210001002000fa0207008038210041
:1029c00001002000f702070042062000010220005b
:1029d000e0a720005bf607000000eb00005d880028
:1029e0007169800040062000808f50000200360090
:1029f00010c0b3003eedb70002022000010220002b
:102a000070b720004ff6070000003700d522a9005c
:102a10008069800071698000801f7800811f7800c4
:102a200050f92800801f780070b7200052f6070088
:102a3000e687570070b8200021d220000500090069
:102a4000315878006000b1003dcdbf008080fb00b0
:102a50003ccdbf000080fb00d2b82000811f780071
:102a6000801f780030fa2800801f7800020078006c
:102a700041f60700e687570071b7200010c0b30089
:102a8000fd14070071b8200020c0b300fa1407003d
:102a90005f0007005cccbf00e14f400005003a003a
:102aa000150d07006000b800e0688800f168880034
:102ab00012003700e0688000f1688000610040008b
:102ac000e0804800e0688800f1688800e2688000e3
:102ad000f3688000f0ed220001002000800f51001b
:102ae000818f5900050036006000b800e06888005a
:102af000f168880030c0b3005fecb7005fccbf0066
:102b0000e24f5000c1ff3600a100200000fb28006a
:102b1000e6030700d0c0b300da030700a0c0b3008b
:102b2000d80307000040eb005fecb7000040eb006b
:102b30005cecb7000040eb005decb7004206200003
:102b400001022000e0a72000fef507006000b800a9
:102b5000b0698800c1698800e64da9000040eb001b
:102b60003cedb7000000eb00d06988000040eb00ae
:102b70003dedb7006000b800e0688800f1688800ab
:102b800070b82000b1fb280005000900315878001a
:102b90006000b10071b8200020c0b300b614070077
:102ba00000c1b30004180700a0c0b300021807005a
:102bb000a0c0b300001807008038210001002000e9
:102bc000780207008038210001002000750207000c
:102bd000803821000100200072020700a0c0b3006d
:102be000f517070070b7200021fc28000f0009002e
:102bf0003158780071b7200010c0b3009e14070050
:102c000000c1b300ec170700010007007fff370089
:102c10000600fa005cccbf00e14f400082013200a8
:102c20005cccbf000004e0003d003a005dccbf007a
:102c30000004e00017003a0020d2200031fd2800f7
:102c400005000900315878004206200001022000ea
:102c5000e0a72000bbf507000000eb00005d880046
:102c600081002000a0fd280090030700d0c0b30021
:102c700084030700a0c0b3008203070010c0b300a4
:102c80005decb700803821000100200045020700fc
:102c90002300370071a820009140780020c5b300c0
:102ca00080cf50001e003a00a1a82000914078007b
:102cb00040c4b30080cf500019003a00b1a82000f2
:102cc0009140780090c5b30080cf500014003a00c6
:102cd00001a9200091407800f0c4b30080cf5000db
:102ce0000f003a0011a9200091407800b0c4b30051
:102cf00080cf50000a003a0092cabf00ed4f50004a
:102d000007003a0093cabf00ea4f500004003a009f
:102d10000040eb005decb70010c0b3005cecb70006
:102d20005cccbf00e14f500038003a005dccbf00e2
:102d30000004e00017003a0020d2200031fe2800f5
:102d400005000900315878004206200001022000e9
:102d5000e0a720007bf507000000eb00005d880085
:102d600081002000a0fe280050030700d0c0b3005f
:102d700044030700a0c0b3004203070010c0b30023
:102d80005decb7008038210001002000050207003b
:102d90001e00370091a820009140780010c3b300b6
:102da00080cf50000500320091a8200091407800ab
:102db00050c3b30080cf500014003a00e1a82000b7
:102dc00091407800f0c4b30080cf50000f003a006b
:102dd000f1a8200091407800b0c4b30080cf50002b
:102de0000a003a0090cabf00ed4f500007003a00b9
:102df00091cabf00ea4f500004003a000040eb00c7
:102e00005decb70020c0b3005cecb7005cccbf0049
:102e1000e24f50002e003a005dccbf000004e000fd
:102e200017003a0020d2200031ff280005000900d9
:102e3000315878004206200001022000e0a720005f
:102e400040f507000000eb00005d8800c100200095
:102e5000a0ff280015030700d0c0b3000903070036
:102e6000a0c0b3000703070010c0b3005decb700bb
:102e70008038210001002000ca010700140037003b
:102e800001a8200091407800f0c4b30080cf50002a
:102e90000f003a0011a8200091407800b0c4b300a0
:102ea00080cf50000a003a0082cabf00ed4f5000a8
:102eb00007003a0083cabf00ea4f500004003a00fe
:102ec0000040eb005decb70030c0b3005cecb70035
:102ed0005cccbf00e34f500088003a005dccbf00df
:102ee0000004e00071003a0020d2200071002900a7
:102ef0000500090031587800420620000102200038
:102f0000e0a720000ff507000000eb00005d88003f
:102f1000d1002000e0002900e402070016cbbf002a
:102f20000004e00004003a00f1002000c001290084
:102f3000de0207005000370016cbbf00e14f500003
:102f400004003a0051012000c0022900d702070006
:102f50004900370016cbbf00e24f500004003a0092
:102f60009100200020042900d00207004200370011
:102f700016cbbf00e34f500004003a00e1002000f0
:102f8000c0042900c90207003b00370016cbbf0070
:102f9000e44f500004003a0081002000b0052900f1
:102fa000c20207003400370016cbbf00e54f5000c7
:102fb00004003a009100200040062900bb020700ef
:102fc0002d00370016cbbf00e64f500004003a003a
:102fd00081002000e0062900b40207002600370027
:102fe00016cbbf00e74f500004003a0061002000fc
:102ff00070072900ad0207001f00370016cbbf0085
:10300000e84f500004003a00c1002000e00729000a
:10301000a60207001800370016cbbf00e94f50008a
:1030200004003a0081002000b00829009f02070038
:103030001100370016cbbf00ea4f50000e003a00d7
:1030400091ccbf008000fb00c0c7200097020700a2
:1030500011002000400929009402070091ccbf0014
:103060008000fb00c0c72000ac0207001100200058
:1030700040092900a90207008100200060092900f9
:103080008a020700d0c0b3007e020700a0c0b300d0
:103090007c02070080382100010020004101070068
:1030a00010c0b3005decb7001400370001a8200089
:1030b00091407800f0c4b30080cf50000f003a0078
:1030c00011a8200091407800b0c4b30080cf500018
:1030d0000a003a0082cabf00ed4f500007003a00d4
:1030e00083cabf00ea4f500004003a000040eb00e2
:1030f0005decb70040c0b3005cecb7005cccbf0037
:10310000e44f50002f003a005dccbf000004e00007
:1031100014003a0020d22000f1092900050009001e
:10312000315878004206200001022000e0a720006c
:1031300084f407000000eb00005d8800c10020005f
:10314000600a290059020700d0c0b3004d020700f1
:10315000a0c0b3004b02070010c0b3005decb70085
:103160001800370001a8200091407800f0c4b30097
:1031700080cf500013003a0011a820009140780041
:10318000b0c4b30080cf50000e003a0082cabf0026
:10319000ed4f50000b003a0083cabf00ea4f5000c9
:1031a00008003a0020d22000310b29000500090058
:1031b000315878000040eb005decb70000c0eb0038
:1031c0005cecb7005dccbf00e14f500016003a0048
:1031d00000408000100798008040eb00014f78000d
:1031e000c05d20009e009000808f500002003600dd
:1031f00010c0b300004f78009e0090000100e8006e
:10320000004088001e4078000004e0000600320004
:103210000000eb00004088000040eb005decb700d0
:103220000040eb005cecb7001ccbbf0062406000cc
:103230000004e000d90032001c2ba900d0628000fd
:10324000f6ecb70062002000910b290040bc200082
:103250005af407000000e00003003a00710020006b
:10326000000c29002d02070032002000810c2900eb
:1032700040bc200051f407000000e0001f003a00ad
:103280000040eb0015edb70015cdbf0014edb70001
:1032900052d1200013002000e00a2000010020008d
:1032a00019110700007d200001002000bd0007006b
:1032b00042d1200013002000a00a200001002000bd
:1032c00011110700007d200001002000b50007005b
:1032d0000040eb00c2edb70071002000c00c2900d7
:1032e0000e020700bc050700410d290010c0b30005
:1032f000e1120700a0c0b3002f1607003200200023
:10330000510e290040bc20002cf407000000e00012
:1033100043003a00520120000102200070c6200044
:1033200008f4070071bc2000210798002e009000cf
:103330001040780067ecb7002e009000104090001d
:1033400068ecb700a20020008000eb0070c62000ef
:103350002cf4070090ecb70090ccbf00ea4f50006f
:1033600023003a00520120000102200070c6200014
:10337000f4f3070091bc2000210798002e00900074
:103380001040780067ecb7002e00900010409000cd
:1033900068ecb700a20020008000eb0070c620009f
:1033a00018f4070091ecb70091ccbf00f44f500027
:1033b0000c003c00520120000102200070c62000d9
:1033c000e0f3070091ccbf000001fb00b0bc20007f
:1033d000c3c720008000780003007800d2f3070004
:1033e0000300370001012000900e2900cb010700e7
:1033f00090ccbf0016ebb70062b120001300200094
:103400006009200001002000bf10070030c0b30099
:103410005fecb70071002000a00f2900bf0107007a
:10342000420020002110290040bc2000e3f30700e7
:103430000000e00040003a00610020007010290008
:10344000b6010700520120000102200070c62000d2
:10345000bcf3070070698000801f7800e01029002d
:10346000801f780070c62000c3f30700e487570070
:103470004100200070c62000a8010700a0c2b300d0
:103480009c010700520120000102200070c62000ac
:10349000acf3070080698000801f7800e0102900ed
:1034a000801f780070c62000b3f30700e487570040
:1034b0004100200070c6200098010700a0c2b300a0
:1034c0008c010700520120000102200070c620007c
:1034d0009cf307003ccdbf000080fb00801f7800fc
:1034e00040112900801f780070c62000a2f3070059
:1034f000e48757004100200070c6200087010700c4
:10350000a0c2b3007b0107003dcdbf000043b00067
:1035100078010700a0c2b300760107006100200017
:1035200020d220007d010700a0c2b3007101070076
:1035300040c2b3006f01070061cf200091407800c6
:1035400080c5b30080cf50000e003600c0bc200004
:1035500090407800901129001040780080cf5000f2
:1035600008003a00e0bf2000904078009011290048
:103570001040780080cf500002003a001000200078
:103580007b0507000000eb00d062880042062000a7
:103590000102200040bc20006af307000080fa000e
:1035a000000006000400fa00008fbe00040037008f
:1035b0000080eb008080eb001e0f40005e9748000b
:1035c0001e00be00e00f5000e08f5800f8ff3a00e8
:1035d0000080fa00000006001e00fa00300f98007c
:1035e000420f9800530f9800415f9800545f980075
:1035f0004e5890000001fb000e00e800be0890004d
:1036000049f307004e089000de089000e00f5000dc
:10361000e08f58001f0032004e0890000001780033
:103620004e5890008000fb004e0890000000fb0008
:10363000008050008e01e800808141004e589000cb
:103640008000fb004e0890000000fb00008050004e
:10365000800078000e00e800010040000000e80053
:1036600083007800fbf307004e5890008000fb00b9
:103670004e0890000000fb000080500080007800a1
:103680000e00e80001004000e1c2b30001487800ec
:10369000070037004e5890000000fb0080007800c3
:1036a0000e00e8000100400001c2b30001487800ac
:1036b0005e589000e14f50002a003a000040eb00b5
:1036c000004f7800180037001e00fb0080007800d3
:1036d0000e00e800010040009040780000c3b300f5
:1036e00080cf500007003a001e00fb0080007800e9
:1036f0000e00e8000100400001c2b300014878005c
:10370000080037001e00fb00800078000e00e80073
:103710000100400090407800d0c2b30080cf50003c
:1037200010003a001e4fe8001e4078000002fb0027
:10373000cfa2de004e5890000001fb00cf91de00ca
:103740004e089000de089000000051008180590072
:1037500061005000e0805800800f5200818f5a00b5
:10376000d9ff39004e089000de089000e00f5000ad
:10377000e08f5800080032004e5890000000fb0017
:103780000000e800000178003e0890008e00e8008c
:10379000e5f20700090037004e5890000001fb00d9
:1037a0003e0890000000e8008e00e800def207000e
:1037b000be08900000c2b300804878000080fa0084
:1037c000000006000000fa000a000700dcfb07000a
:1037d000170007005d0207005512070042c0bf0036
:1037e0007f40600042e0b700980007000080fa00c8
:1037f000000006000000fa00f0f3230030168800f5
:103800000000eb004016880030c32a002017880013
:10381000600020006016880000c02f00901688000d
:103820000000eb00301788000080fa00000006005e
:103830000000fa00e00120001004880088a0a90020
:1038400090a0a8000000eb00200888008460a90078
:1038500005a1a90080d32100100888000421a90037
:1038600004c1a9000441a9008c60a80005e1a800da
:10387000a1048000f0ff200000806000a004880008
:10388000a10480000000230000807000a0048800d4
:103890000080fa00000006000000fa0000082a007c
:1038a000601088000fe2a9000f62a9000f42a80073
:1038b0000ec2bf00f043b2000ee2b7000ea2a80095
:1038c0000ec2bf00f043b20001c4b300014070005b
:1038d0000ee2b7000fe2a800f0022000a01088005e
:1038e0008d20a8008d40a8008540a9008520a90052
:1038f0000e22a9000e42a9000e62a900de42a80015
:10390000de62a900e042a900e262a900c1048000d1
:10391000f00f2f0000806000c0048800c104800008
:103920000010200000807000c0048800c1048000e6
:10393000f0f02f0000806000c0048800c104800007
:103940000002200000807000c0048800184ba9000d
:10395000188ba9000040eb006aeab7000040eb00ba
:103960006ceab7000040eb000ee8b7000080fa00f8
:10397000000006000000fa0000082a00b0108800cd
:1039800019e2a9001962a9001942a80018c2bf00d3
:10399000f043b20018e2b70018a2a80018c2bf0096
:1039a000f043b20001c4b3000140700018e2b70058
:1039b00019e2a800f0022000f01088008f00a80093
:1039c0008f20a8008720a9008700a9001822a9003d
:1039d0001842a9001862a900de82a800dea2a90090
:1039e000e082a900e2a2a90001058000f0f02f000a
:1039f00000806000000588000105800000062000ae
:103a000000807000000588000105800000ff2f0085
:103a10000080600000058800000580007000b30091
:103a200000058800186ba90018aba9000040eb0046
:103a30006beab7000040eb006deab7000040eb0016
:103a400010e8b7000080fa00000006000000fa004d
:103a500091ff0700c7ff07000080fa000000060082
:103a60000200fa00004f78001e40780014ebb70007
:103a700014cbbf000004e000fdff3a000080fa0014
:103a8000000006000200fa00004f78001e00fb0054
:103a9000801088000fc2bf00614060000004e00099
:103aa000fcff32000080fa00000006000600fa0069
:103ab00010079800210798000000eb00000f780025
:103ac000070037001e007800800078001e0090007c
:103ad0000080400010407800eaff07001e0fe80059
:103ae0002e0090009e0f1000f6ff35000080fa00b7
:103af000000006000200fa00004f78001e00fb00e4
:103b0000d010880019c2bf00614060000004e000ce
:103b1000fcff32000080fa00000006000600fa00f8
:103b200010079800210798000000eb00000f7800b4
:103b3000070037001e007800800078001e0090000b
:103b40000080400010407800eaff07001e0fe800e8
:103b50002e0090009e0f1000f6ff35000080fa0046
:103b600000000600809fbe00829fbe003400f80067
:103b700000002000a00188000600fa0014cbbf005e
:103b80000004e0000300320014cbbf000040e90055
:103b900014ebb70010598000610060000000e000e5
:103ba0001c003200005e8000115e8000100798004b
:103bb000210798008040eb00014f78007038210009
:103bc000010020001e019000ae019000800f510006
:103bd000818f59000200360013c0b300034f7800f4
:103be0001e019000ae01900061004100e08049009c
:103bf000005e8800115e88009e4178000304e000aa
:103c000004003200222ba8006000b800005e88008b
:103c1000115e88008460a9000080fa003400f90079
:103c20004f01be004f00be00004006000000fa0039
:103c30000080fa0000000600809fbe00821f78000e
:103c40003400f80000002000a00188000000fa0005
:103c50000ec2bf00624060000004e00001003200bc
:103c60000e22a9009010800075ebb70051b720001c
:103c70009140780050c5b30080cf500001003a0059
:103c80001e8ba8003dcdbf00e64f50004b003a0010
:103c9000005d8000e20f500013003a0051b7200091
:103ca00091407800e0c3b30080cf50000b003a0091
:103cb000025d800075cbbf0080407800e0a7200047
:103cc00000004100014878000200e800005d880023
:103cd00010c0b30066ecb7002c0037000000eb000a
:103ce000005d880029003700005d8000e10f500072
:103cf00019003a0051b720009140780020c2b3006b
:103d000080cf500009003a00025d800075cbbf00f3
:103d100080407800e0a720000000410001487800c2
:103d20000200e800005d88001800370051b720004d
:103d300091407800f0c2b30080cf500003003a00f9
:103d400010002000005d8800100037000000eb002c
:103d5000005d88000d00370051b7200091407800c9
:103d6000f0c2b30080cf500008003a00025d80002e
:103d700075cbbf0080407800e0a720000000410024
:103d8000014878000200e800005d880066ccbf00b2
:103d9000e14f500011003a00025d800075cbbf007a
:103da00080407800e0a72000000041000148780032
:103db0000200e800005d880008003700025d800016
:103dc00075cbbf0080407800e0a7200000004100d4
:103dd000014878000200e800005d8800015d800075
:103de00050092000808f5000020036000000eb00d8
:103df000005d88008520a9000080fa003400f900e9
:103e00004f0178004f00be0000400600809fbe00ba
:103e10003400f80000002000a00188000000fa0033
:103e2000180ba8000ec8bf000004e000120032000a
:103e3000f1802000914078000ec8bf0080cf500074
:103e40000b0031000fc8bf008080fb00808a20007b
:103e500000804000104078000080fb008010880047
:103e60000fc8bf000040e8000fe8b70002003700ad
:103e70000040eb000ee8b7008540a9000080fa0082
:103e80003400f9004f00be0000400600809fbe00d5
:103e9000821f78003400f80000002000a001880094
:103ea0000000fa0018c2bf00624060000004e00099
:103eb000010032001822a900e010800076ebb70064
:103ec00061b720009140780050c5b30080cf50000a
:103ed00001003a001eaba8001ccbbf00624060008e
:103ee0000004e0001f003a0061b720009140780014
:103ef00040c2b30080cf500003003a001c0ba90061
:103f00001c2ba800170037001ccbbf0061406000cd
:103f10000004e0000a003200d162800062b7200095
:103f20001241780040bc2000008040000248780028
:103f3000d06280000000e800d062880009003700ed
:103f400061b720009140780050c2b30080cf50008c
:103f500004003a000000eb00d06288001c2ba9008e
:103f60001c0ba8008700a9000080fa003400f900ab
:103f70004f0178004f00be0000400600809fbe0049
:103f80003400f80000002000a00188000000fa00c2
:103f9000182ba80010c8bf000004e0001200320077
:103fa000118120009140780010c8bf0080cf5000e0
:103fb0000b00310011c8bf008080fb00409d200035
:103fc00000804000104078000080fb00d010880086
:103fd00011c8bf000040e80011e8b7000200370038
:103fe0000040eb0010e8b7008720a9000080fa002d
:103ff0003400f9004f00be0000400600801f78002a
:104000003400f80000002000a00188000000fa0041
:1040100018cba80000148000f05c88008560a9001f
:104020000080fa003400f9004f00780000400600dc
:10403000801f78003400f80000002000a0018800f4
:104040000000fa0084c0bf00614060000004e0008e
:10405000010032008400a9000080fa003400f90059
:104060004f00780000400600801f78003400f80000
:1040700000002000a00188000000fa0086c0bf00f8
:10408000614060000004e000010032008600a900e9
:104090000080fa003400f9004f007800004006006c
:1040a000809fbe003400f80000002000a0018800be
:1040b0000000fa0086c0bf0001c8b30001406000e4
:1040c0000004e0000100320086e0a9000080fa0050
:1040d0003400f9004f00be0000400600801f780049
:1040e0003400f80000002000a00188000000fa0061
:1040f00088c0bf00704060000004e0000100320092
:104100008880a9000080fa003400f9004f00780090
:1041100000400600801f78003400f80000002000f6
:10412000a00188000000fa0088c0bf000042b20071
:104130000004e0000100320088a0a9000080fa001d
:104140003400f9004f007800004006000000fa003b
:10415000c702a800c722a800c742a800c762a800db
:10416000c782a800c7a2a8000080eb004015880005
:10417000a902a900a922a900a942a900a962a9002f
:10418000a982a900a9a2a900112a200091407800c3
:10419000c0cfb30000c06000a1e2b700012a200038
:1041a0009140780000ceb30000c07000a0e2b700dc
:1041b000a042a800a3c2bf007f40600001c6b300b8
:1041c00001407000a3e2b700212a2000914078004e
:1041d000c0c3b30000c07000a2e2b700512a2000a3
:1041e0009140780000ceb30000c060000004a00041
:1041f000a5e2b700a4e2a800412a2000914078007f
:1042000000ccb30000c06000a4e2b7000000eb00e7
:10421000501588008560a9008d60a8000080fa0014
:10422000000006000200fa00004f78001e80fb002c
:104230003015880010c0b30009fe0700a1e2a800f5
:104240006000b80040408800514088000040eb000a
:1042500002e8b700310037006000b8002040880055
:1042600031408800002820006040880018cba90059
:1042700018cbbf000044b2000004e000fcff320095
:104280000000eb00e05c88000e0037006440800016
:10429000140078006101b8002040800031408000a7
:1042a00002004000838048002040880031408800a0
:1042b0000480e80060408800e05c80000000e800c6
:1042c000e05c8800e05c8000ef0f5000efff3400fe
:1042d00020408000314080004c09dd004400de00b9
:1042e00000007100c408de002040880031408800d2
:1042f00042408000534080002040800031408000d8
:1043000002004000838048004040880051408800ff
:1043100002c8bf000040e80002e8b70002c8bf00c2
:10432000f34f5000ccff36004040800051408000e9
:10433000420120000300200063f507004040880090
:104340005140880040408000514080008100d100f1
:104350000080d30040408800514088000080fa006f
:10436000000006000200fa00004f78001eaba90012
:10437000f05880004500de00614060000080fb00d6
:10438000610060004401dd00f1588000f0fe2f0064
:104390000080600002007000f058880010c0b30078
:1043a0009e4f100003003a0050c5b300b5fd070052
:1043b0000200370050c5b300cefd0700861107008c
:1043c000dacdbf000004e00023003a00f05880007e
:1043d000700060000000e00005003a00f058800026
:1043e00001022000010060000000e0000d0032002a
:1043f0001e8ba9001eaba90070b82000b1112900c6
:104400000f000900315878000001b10071b8200098
:1044100020c0b300980e070010c0b300e6110700db
:104420000800370070b82000c11229000f000900f1
:10443000315878000001b10071b8200020c0b300ed
:104440008d0e070010598000620060000000e0003f
:1044500005003a00d1ff370070b8200002012000ab
:1044600001022000b7ef07000080fa0000000600fc
:104470000a00fa0030079800410798000080eb001e
:10448000000f78000040eb00304798002000370014
:104490004e00900090407800514798004e009000e8
:1044a0000000e800400798005e4090000080fb009c
:1044b0001e0f68000040eb00204798000e003700f8
:1044c0001e00780061406000404798001e007800a0
:1044d0000000d100000f78004e4090000004e00082
:1044e0000200320010002a001e0f68002e409000cb
:1044f0000040e800204798002e409000e74f500011
:10450000efff36003e4090000040e8003047980042
:104510003e4090008080fb003e009000808f500065
:10452000dbff39001e0078004800de0073eab700a8
:104530001e00780074eab7000080fa000000060050
:104540000200fa00000f78001e0078000080fb00d7
:104550000080fa00000006000200fa00000f780058
:104560001e0078004800de000080fb000080fa009a
:10457000000006000400fa000040eb00004f780045
:1045800016cbbf00004f7800000037001e04e0008b
:1045900004003a00d113290020c0b300360e0700f2
:1045a0001b00370010c0b3009e4f100004003a00fb
:1045b000e114290020c0b3002f0e070014003700bb
:1045c00020c0b3009e4f100004003a00f1152900ee
:1045d00020c0b300280e07000d00370030c0b30024
:1045e0009e4f100004003a000117290020c0b300bc
:1045f000210e07000600370040c0b3009e4f100098
:1046000003003a001118290020c0b3001a0e070059
:10461000f1100700dbcdbf000004e0000b0032000a
:104620001e40780016ebb7002119290020c0b30006
:10463000110e070062b12000130020006009200065
:1046400001002000300c070015003700ddcdbf0051
:104650000004e0000e0032000040eb00204798000c
:1046600030c0b3009e4f10000200360010c0b300ef
:10467000204798001e4fe8002e4090000004e00004
:10468000c2ff32000040eb00004f7800bfff370050
:10469000dfcdbf000004e00001003a00bbff37009f
:1046a0000080fa00000006000600fa00204798008b
:1046b0000000eb00000f7800c1002000301a290034
:1046c000fafc07002e4090000004e00004003a00cd
:1046d00001012000001b2900f4fc07003000370016
:1046e0002e409000e14f500004003a00510020009d
:1046f000101c2900edfc0700290037002e40900017
:10470000e24f500004003a0061012000701c2900b3
:10471000e6fc0700220037002e409000e34f5000d7
:1047200004003a00f1002000e01d2900dffc070032
:104730001b0037002e409000e44f500004003a0068
:10474000f1002000e01e2900d8fc0700140037000b
:104750002e409000e54f500004003a0091002000e8
:10476000e01f2900d1fc07000d0037002e4090000b
:10477000e64f500004003a009100200080202900fc
:10478000cafc0700060037002e409000e74f50009b
:1047900003003a008100200020212900c3fc07000b
:1047a0008100200060092900c0fc0700d0c0b300d0
:1047b000b4fc0700a0c0b300b2fc07000000eb008f
:1047c000005d88006209200001022000e0a72000af
:1047d000dcee070001a8200091407800f0c4b3008f
:1047e00080cf500008003a0011a8200091407800c6
:1047f000b0c4b30080cf500003003a001000200086
:10480000200798001b00370001a820009140780085
:1048100050c4b30080cf500008003a0041a82000e7
:104820009140780020c5b30080cf500003003a00cb
:104830000000eb00200798000e0037000040eb005e
:1048400030479800801a26009e0f100002003600a4
:1048500010c0b300304798001e0fe8003e409000a3
:104860000004e00001003a00daff37000000eb002e
:10487000200798002e0090000080fa00000006003b
:104880000000fa00b0c5b30074ebb7000000eb0005
:1048900070698800706980008069880002d32000f8
:1048a000230020000005200001002000960b0700d7
:1048b00020002000010020003afb0700e2d2200087
:1048c0002300200040052000010020008e0b07007f
:1048d000200020000100200032fb07000040eb0018
:1048e00015edb70015cdbf0014edb70052d1200073
:1048f00013002000e00a200001002000820b0700c6
:10490000007d20000100200026fb070042d120008e
:1049100013002000a00a2000010020007a0b0700ed
:10492000007d2000010020001efb0700c0032000c6
:1049300001002000806888009168880002d1200072
:1049400043002000200b2000010020006e0b070018
:10495000007d20000100200012fb070042b720006c
:1049600013002000700c200001002000660b0700df
:10497000a0002000010020000afb070010c0b300c7
:1049800016ebb70062b12000130020006009200080
:10499000010020005c0b070070b82000b121290045
:1049a0000f000900315878000001b10071b82000f3
:1049b00020c0b300300d070020c0b3007e100700f8
:1049c00070b8200002012000010220005dee070007
:1049d0000080fa00000006000000fa000000eb0072
:1049e0008069880002d320002300200000052000f9
:1049f00001002000440b07002000200001002000df
:104a0000e8fa07000000eb0070698800e2d220009d
:104a10002300200040052000010020003a0b070081
:104a20002000200001002000defa070070b72000ff
:104a3000c12229000f0009003158780071b7200009
:104a400010c0b3000c0d070070b82000b1fb2800a7
:104a500005000900315878006000b10071b82000ed
:104a600020c0b300040d0700a100200000fb2800b7
:104a70000efc0700d0c0b30002fc0700a0c0b300ca
:104a800000fc07008038210001002000c5fa070063
:104a90008038210001002000c2fa07008038210080
:104aa00001002000bffa070000c1b3004210070058
:104ab00040c1b3004010070070b72000d123290087
:104ac0000f0009003158780071b7200010c0b30002
:104ad000e90c07000000eb00006388000040eb00d9
:104ae0003eedb7000040eb003fedb700f2d32000f1
:104af00013002000c005200001002000020b070069
:104b00002000200001002000a6fa07000040eb0072
:104b10002cedb7004206200001022000e0a7200093
:104b200008ee07006000b800b0698800c16988001d
:104b3000e64da9000040eb003cedb7000000eb00a3
:104b4000d06988000040eb005decb7000040eb004e
:104b50005cecb7000040eb005fecb7002cf80700fe
:104b6000a0c0b300141007000080fa000000060087
:104b70007400fa00881f7800103f9800800620001b
:104b80000e004000e1242900090009003158780096
:104b9000a000b1000000eb00100798000040eb00ff
:104ba000004f7800d26280006400470041bc2000c2
:104bb000dded0700800620000e004000a20020006e
:104bc00001022000dfed070064004700e90040001b
:104bd000800620000e0040000300090031587800d4
:104be0004000b1004100b100640047004004b00043
:104bf0003200200081252900f0ed07000000e000d0
:104c000098023a00800620000e004000a20020001a
:104c10008000eb00fbed0700e00f5000e08f580034
:104c2000900232007169800040062000808f5000a1
:104c300013003e00706980000000e00010003200a8
:104c4000706980000000e900906988009069800028
:104c50007d00b900010020000001be000219b00073
:104c60000380b00020b42000d1012000320b0700e7
:104c7000007d2000010020004afa070017003700dd
:104c80007169800040062000808f500013003600bc
:104c9000706980000000e900420620001100090050
:104ca0000280d8008000fd00906988009069800033
:104cb0007d00b900010020000001be000219b00013
:104cc0000380b00020b42000d10120001a0b07009f
:104cd000007d20000100200032fa0700800620003d
:104ce0000e004000a20020000102200095ed070008
:104cf000640047008000e800800620000e004000ad
:104d00001148780011419000124098008006200060
:104d10000e004000a20020008000eb00b9ed07006b
:104d20000001be000068800011688000800f510003
:104d3000818f59000f003200800620000e004000d5
:104d4000a20020008000eb00aeed070000688800a4
:104d50001168880002d0200043002000200a2000b3
:104d600001002000680a0700007d200001002000eb
:104d70000cfa0700800620000e004000a200200070
:104d8000010220006fed070064004700e4004000ce
:104d9000800620000e004000030009003158780012
:104da0004000b1004100b100800620000e0040002c
:104db000a20020008000eb0092ed07000001be0081
:104dc0002068800031688000800f5100818f590079
:104dd0000f003200800620000e004000a2002000dc
:104de0008000eb0087ed07002068880031688800ac
:104df00042d0200043002000600a20000100200073
:104e0000410a0700007d200001002000e5f90700ad
:104e1000640047006800400090407800901129002d
:104e20001040780080cf50005e033a0080062000da
:104e30000e004000a20020000102200041ed07000a
:104e400064004700e9004000800620000e0040009a
:104e500003000900315878004000b1004100b10062
:104e6000800620000e004000a20020008000eb0021
:104e700064ed0700105a8800215a8800800620003f
:104e80000e004000a2002000010220002ded0700ce
:104e900064004700ef004000800620000e00400044
:104ea00006000900315878007000b1007100b100af
:104eb000800620000e004000a20020008000eb00d1
:104ec00050ed0700c0678800d16788008006200089
:104ed0000e004000a20020000102200019ed070092
:104ee00064004700f8004000800620000e004000eb
:104ef00006000900315878007000b1007100b1005f
:104f0000800620000e004000a20020008000eb0080
:104f10003ced0700e0678800f1678800800620000c
:104f20000e004000a20020000102200005ed070055
:104f300064004700110220008080400080062000ad
:104f40000e00400006000900315878007000b100e2
:104f50007100b100800620000e004000a200200079
:104f60008000eb0027ed0700305a8800415a880086
:104f7000800620000e004000a20020000102200058
:104f8000f0ec070064004700a10220008080400090
:104f9000800620000e00400006000900315878000d
:104fa0007000b1007100b100800620000e004000ca
:104fb000a20020008000eb0012ed0700505a88008c
:104fc000615a8800800620000e004000a2002000e8
:104fd00001022000dbec07006400470021032000f1
:104fe00080804000800620000e00400011487800bc
:104ff0001141900012409800e8b420001844780055
:10500000800620000e004000a20020008000eb007f
:10501000fcec0700804f540001003a001e4fe800ee
:10502000800620000e004000a20020008000eb005f
:10503000f4ec07004eebb700800620000e004000a5
:10504000a200200001022000beec0700640047001f
:105050004103200080804000800620000e004000b8
:10506000114878001141900012409800f8b42000d7
:1050700018447800800620000e004000a2002000a6
:105080008000eb00dfec0700804f540001003a0085
:105090001e4fe800800620000e004000a200200005
:1050a0008000eb00d7ec07004febb7008006200034
:1050b0000e004000a200200001022000a1ec070029
:1050c00064004700610320008080400080062000cb
:1050d0000e00400003000900315878004000b10084
:1050e0004100b100885a8000800620000e00400078
:1050f000a20020008000eb00c2ec0700800f5400eb
:1051000001003a001e4fe800800620000e0040001b
:10511000a20020008000eb00baec0700805a880053
:10512000800620000e004000a200200001022000a6
:1051300084ec070064004700b10320008080400039
:10514000800620000e0040001148780011419000b8
:105150001240980028b520001844780080062000ee
:105160000e004000a20020008000eb00a5ec07002c
:10517000804f540001003a001e4fe80080062000d6
:105180000e004000a20020008000eb009dec070014
:1051900052ebb700800620000e004000a200200065
:1051a0000102200067ec070064004700d1032000e3
:1051b00080804000800620000e00400011487800ea
:1051c000114190001240980038b520001844780032
:1051d000800620000e004000a20020008000eb00ae
:1051e00088ec0700804f540001003a001e4fe80091
:1051f000800620000e004000a20020008000eb008e
:1052000080ec070053ebb700800620000e00400042
:10521000a2002000010220004aec070064004700c1
:10522000f103200080804000800620000e00400036
:1052300011487800114190001240980048b52000b4
:1052400018447800800620000e004000a2002000d4
:105250008000eb006bec0700804f540001003a0027
:105260001e4fe800800620000e004000a200200033
:105270008000eb0063ec070054ebb70080062000d1
:105280000e004000a2002000010220002dec0700cb
:105290006400470041042000808040008006200018
:1052a0000e00400011487800800620000e004000eb
:1052b000a20020008000eb0052ec070056ebb70084
:1052c000800620000e004000a20020000102200005
:1052d0001cec07006400470071042000808040003f
:1052e000800620000e004000114878008006200053
:1052f0000e004000a20020008000eb0041ec0700ff
:1053000016edb700800620000e004000a20020002d
:10531000010220000bec070064004700810420001c
:1053200080804000800620000e0040001148780078
:10533000800620000e004000a20020008000eb004c
:1053400030ec070017edb700800620000e0040008b
:10535000a200200001022000faeb070064004700d1
:105360009104200080804000800620000e00400054
:1053700011487800800620000e004000a2002000a6
:105380008000eb001fec070018edb700800620003e
:105390000e004000a200200001022000e9eb0700ff
:1053a00064004700a10420008080400080062000a7
:1053b0000e00400011487800800620000e004000da
:1053c000a20020008000eb000eec070019edb700f2
:1053d00050c0b3009e4f1000140036004100200062
:1053e000c0252900cdf90700105a8000215a8000fd
:1053f000820620000e014100809fbe001026290079
:10540000801f780002007800dbeb0700e68757007a
:10541000800620000e00400041002000bff9070078
:1054200040c2b300b3f90700de0137000040eb00d3
:10543000004f780071698000110798007169800041
:10544000f0702200808f5000020036000000eb0058
:1054500070698800706980000000e00022003a0056
:105460000000eb00100798000040eb003eedb70095
:105470000040eb003fedb700f2d320001300200006
:10548000c0052000010020009f0807002000200028
:105490000100200043f807000000eb00806988004d
:1054a00002d320002300200000052000010020007e
:1054b00095080700200020000100200039f80700af
:1054c0000000eb0070698800e2d220002300200079
:1054d00040052000010020008b080700200020006c
:1054e000010020002ff80700706980000000e8002c
:1054f00070698800e2d220002300200040052000cf
:10550000010020008008070020002000010020008a
:1055100024f807007169800040062000808f500049
:105520000200360010c0b3003eedb7003ecdbf0014
:105530000004e000060032001e0090004206200039
:10554000110009000280d8008000fd0010079800bb
:1055500022b420001e0090007d00b9000100200050
:105560000019b0000180b000d301200066080700d8
:10557000007d2000010020000af8070082cf2000f3
:1055800043002000a0092000010020005e08070061
:10559000007d20000100200002f80700c2cf20009b
:1055a00043002000e0092000010020005608070009
:1055b000007d200001002000faf7070002d0200043
:1055c00043002000200a2000010020004e080700b0
:1055d000007d200001002000f2f7070042d02000eb
:1055e00043002000600a2000010020004608070058
:1055f000007d200001002000eaf7070041002000a4
:10560000c025290045f90700105a8000215a800062
:10561000820620000e014100809fbe001026290056
:10562000801f78000200780053eb0700e6875700e0
:10563000800620000e0040004100200037f90700de
:1056400040c2b3002bf907004206200001022000ef
:10565000e0a720003beb07000040eb003dedb7006a
:10566000500137000040eb003dedb70010c0b30023
:10567000c2edb700800620000e004000a20020000e
:10568000010220002feb0700640047008000e800c3
:10569000800620000e004000114878001141900063
:1056a00012409800800620000e004000a20020005a
:1056b0008000eb0053eb07000001be000068800093
:1056c00011688000800f5100818f59000f00320057
:1056d000800620000e004000a20020008000eb00a9
:1056e00048eb0700006888001168880002d020009d
:1056f00043002000200a20000100200002080700cb
:10570000007d200001002000a6f707008006200091
:105710000e004000a20020000102200009eb07005b
:1057200064004700e4004000800620000e004000b6
:1057300003000900315878004000b1004100b10079
:10574000800620000e004000a20020008000eb0038
:105750002ceb07000001be0020688000316880004b
:10576000800f5100818f59000f0032008006200009
:105770000e004000a20020008000eb0021eb07009b
:10578000206888003168880042d020004300200053
:10579000600a200001002000db070700007d2000d8
:1057a000010020007ff7070010c0b3001aedb7001a
:1057b000800620000e004000a20020000102200010
:1057c000e0ea070064004700ef0040008006200088
:1057d0000e00400006000900315878007000b1004a
:1057e0007100b100800620000e004000a2002000e1
:1057f0008000eb0003eb07000001be00c0678000e3
:10580000d1678000800f5100818f5900070032005e
:10581000800620000e004000a20020008000eb0067
:10582000f8ea0700c0678800d1678800800620007a
:105830000e004000a200200001022000c1ea070083
:1058400064004700f8004000800620000e00400081
:1058500006000900315878007000b1007100b100f5
:10586000800620000e004000a20020008000eb0017
:10587000e4ea07000001be00e0678000f1678000f5
:10588000800f5100818f59000f00320080062000e8
:105890000e004000a20020008000eb00d9ea0700c3
:1058a000e0678800f1678800c2cf20004300200035
:1058b000e00920000100200093070700007d200080
:1058c0000100200037f70700800620000e0040008e
:1058d000a2002000010220009aea070064004700ad
:1058e0007104200080804000800620000e004000ef
:1058f00011487800800620000e004000a200200021
:105900008000eb00bfea070016edb700800620001c
:105910000e004000a20020000102200089ea0700da
:105920006400470081042000808040008006200041
:105930000e00400011487800800620000e00400054
:10594000a20020008000eb00aeea070017edb700d0
:10595000800620000e004000a2002000010220006e
:1059600078ea07006400470091042000808040002e
:10597000800620000e0040001148780080062000bc
:105980000e004000a20020008000eb009dea07000e
:1059900018edb700800620000e004000a200200095
:1059a0000102200067ea070064004700a10420000c
:1059b00080804000800620000e00400011487800e2
:1059c000800620000e004000a20020008000eb00b6
:1059d0008cea070019edb700800620000e00400099
:1059e000a20020000102200056ea070064004700e0
:1059f0002103200080804000800620000e0040002f
:105a00001148780011419000124098008006200053
:105a10000e004000a20020008000eb0079ea0700a1
:105a20006cebb700800620000e004000a2002000b2
:105a30000102200043ea0700640047004103200000
:105a400080804000800620000e0040001148780051
:105a50001141900012409800800620000e00400086
:105a6000a20020008000eb0066ea07006debb700a3
